:020000040001F9
:10C00000283B0020F5C001000FC1010011C1010053
:10C010000000000000000000000000000000000020
:10C0200000000000000000000000000013C101003B
:10C03000000000000000000015C1010017C1010050
:10C0400019C1010019C10100F9C4010019C10100A1
:10C0500019C10100000000000DC3010019C1010059
:10C0600019C1010019C1010019C1010019C1010064
:10C0700019C1010019C1010019C1010019C1010054
:10C0800019C1010059C4010019C1010019C1010001
:10C0900079C4010019C1010081C4010019C1010066
:10C0A00019C1010019C101000000000000000000DA
:10C0B0000000000000000000000000000000000080
:10C0C0000348854600F0D2F8004800472DFC0100E7
:10C0D000283B0020401E00BF00BF00BF00BF00BFC4
:10C0E00000BF00BF00BF00BF00BF00BF00BFF1D155
:10C0F000704700000321094802680A4302600848AB
:10C1000002680A4302600748804707480047FEE785
:10C11000FEE7FEE7FEE7FEE7FEE70000240500403D
:10C1200054050040A5C40100C1C0010030B50B4654
:10C13000014600202022012409E00D46D5409D4201
:10C1400005D31D469540491B254695404019154687
:10C15000521E002DF1DC30BD70B5002425460028AC
:10C1600001DA01244042002901DA01254942FFF7A2
:10C17000DDFFAC4200D04042002C00D0494270BDEF
:10C1800010B5431A934209D28318881803E0401E61
:10C1900001785B1E1970521EF9D210BD03460B4385
:10C1A0009B0703D009E008C9121F08C0042AFAD26D
:10C1B00003E00B780370401C491C521EF9D210BDDD
:10C1C000D2B201E00270401C491EFBD2704700222F
:10C1D000F6E710B513460A4604461946FFF7F0FF86
:10C1E000204610BD421C0178401C0029FBD1801A5A
:10C1F000704730B504460020034600E05B1C9342C4
:10C2000003D2E05CCD5C401BF8D030BDF0B51FB46C
:10C210000646002082B005464024019100901BE0B4
:10C22000019922460F46304600F042F8049A059BD9
:10C23000801A994110D310461946224600F028F87A
:10C24000361A8F410197224601200021009F00F0FD
:10C250001FF838184D4100902046641E0028DFDC8E
:10C26000019B00982946324607B0F0BD064C0125D7
:10C27000064E05E0E36807CC2B430C3C984710348E
:10C28000B442F7D3FFF720FF5417020074170200DF
:10C2900010B5202A04DB0146203A9140002010BD51
:10C2A000914020239C1A0346E3401943904010BD5F
:10C2B00010B5202A04DB0846203AD040002110BDEA
:10C2C0000B46D340D0402024A21A9140084319467F
:10C2D00010BD30B58C180278401C13071B0F01D11C
:10C2E0000378401C120906D10278401C03E005784F
:10C2F0000D70401C491C5B1EF9D101E00B70491CFC
:10C30000521EFBD1A142E6D3002030BDF8B5002477
:10C31000FF250135012627460094284604F04AF8F7
:10C32000002808D034484068304204D03348002107
:10C330002818344301602D1D76007F1CADB2042FF8
:10C34000EBD3FF207D3004F035F8002807D02C48CF
:10C3500000210160400704432A48006900902A4FE9
:10C36000200712D00126002526420AD02748AA001D
:10C37000111808690969C004C00E8903BA58890FE9
:10C38000904776006D1C042DEED3002C30DA00248B
:10C390001D4E0021301940304156491C25D00778E8
:10C3A000BD06AD0E284602F0A1F880003658002EDA
:10C3B0001BD0BF090121A940154AA80080180068B8
:10C3C000009A8003800F114202D0022802D00CE0B4
:10C3D00003280AD1032F05D102280AD002212846BA
:10C3E00003F0D8FF39462846B047641C042CCFD34D
:10C3F000F8BD0321F3E70000006300400060004047
:10C400007C61004000050050D031002000650040F4
:10C41000000700508307FF22DB0E9A408907090EB0
:10C42000994000280BDA0007000F083883080848F5
:10C430009B001818C36993430B43C361704783087B
:10C4400004489B001B181868904308431860704705
:10C4500000ED00E000E400E010B5064900200860AF
:10C4600048608860C860034940390860486004F04B
:10C47000C1FE10BD4011014010B504F051FE10BDC9
:10C4800010B507484068002807D08047002803D02F
:10C490000022114600F0F8FC10BD03F02FFA10BD89
:10C4A0005429002010B503F077FA002805D00E4972
:10C4B0000C484860C8130D4988610D48018CC9B209
:10C4C00001290ED1818C09070BD1018D0906090FB5
:10C4D000042906D1808D0006000F02D105490120F4
:10C4E000886010BDDFFF07C000050040006C004001
:10C4F000C00F00F000060040F0B53C4D012185B0B2
:10C500004902284603F065FF01270026384C002821
:10C5100023D0FF212531284603F056FF00281CD0E8
:10C52000FF2025302E508120324980008860607DB8
:10C53000002800D16F600221684601702E4908680A
:10C5400008600390E17C68460172E0680190E6743F
:10C5500006CC6846083C90471DE00421284603F0BD
:10C5600038FF002817D0FF210931284603F02CFF9F
:10C57000002810D004F0BCFAE07C217D88420AD16A
:10C58000607D002800D16F6081201A49800088609A
:10C59000207D04F0C3FAFF211D31284603F014FF6B
:10C5A00000280DD0A07C218A884202D904F0AEFE7A
:10C5B00006E0FF211D316E50002801D004F0BCFEC2
:10C5C000FF214531284603F0FFFE00280CD0FF2054
:10C5D00045302E50607D002800D02F60E07C002880
:10C5E00002D0207D04F09AFA05B0F0BD0020004092
:10C5F0001832002000230040802400400FB410B502
:10C6000003A9044B044A029800F024F810BC08BCAB
:10C6100004B0184779F401005029002030B4744662
:10C62000641E2578641CAB4200D21D46635D5B002E
:10C63000E31830BC184702E008C8121F08C1002ADE
:10C64000FAD170477047002001E001C1121F002A93
:10C65000FBD17047FFB591B00F460546002606E0B6
:10C6600025280AD0149A139990476D1C761C2878B7
:10C670000028F5D1304615B0F0BD0024009401210A
:10C68000F34A029400E004436D1C2B780846203BDB
:10C6900098401042F7D128782A280ED00221287815
:10C6A0000246303A092A15D8009A0A235A43303AEA
:10C6B00080180C436D1C0090F1E701CF009000281A
:10C6C00005DA012040030443009840420090022014
:10C6D00004436D1C28782E2815D104200443687863
:10C6E0006D1C2A280AD101CF6D1C02900BE0029923
:10C6F0000A225143303940186D1C029028780146B7
:10C7000030390929F3D928786C2810D006DC4C2858
:10C710001AD068280ED06A2817D104E0742813D0E4
:10C720007A2812D110E00120400504430CE00121D9
:10C73000090501E0032109050C436978814203D111
:10C740000120000524186D1C6D1C287803906E28AC
:10C750001ED00CDC632831D004DC00288AD0582895
:10C7600011D1B2E064287BD069280CD178E073281D
:10C770002DD004DC6F2870D0702804D1A7E0752874
:10C780006CD078286BD0149A13999047761C62E08D
:10C790006002400F022807D003280AD00428386816
:10C7A0000AD006603F1D56E03868F1170660416008
:10C7B000F8E738680680F5E70670F3E738786946E9
:10C7C00008740020487404A80390012003E038682E
:10C7D00003900020C0433F1D61070FD5002101E0F9
:10C7E0000199491C029A0191914213DA8142F7DBC7
:10C7F000019A0399895C0029F2D10BE0002101E044
:10C800000199491C01918142FADB019A0399895CE3
:10C810000029F5D101990098139A401A00902146F9
:10C82000149B00F03BF901998019461807E0039822
:10C8300003990078491C0391149A13999047019821
:10C84000401E0190401CF2D12146149B139A00987F
:10C8500000F014F986196D1C09E741E033E034E07B
:10C860000A200021049005916002410F022905D0A1
:10C8700001CFC2179446032905D007E0FF1DFF082A
:10C88000FF0003CF06E000B2C2179446042902D18C
:10C8900040B2C1178C4600226146944506DA0A462A
:10C8A0000021404291418C462D2102E0210504D512
:10C8B0002B216A461176012103E0E10701D02021F6
:10C8C000F7E7019154E00A200BE0102009E0102066
:10C8D000049000210420044308200591029003E005
:10C8E00008200021059104906002410F022905D023
:10C8F00001CF00229446032906D006E0FF1DFF0861
:10C90000FF0003CF8C4603E080B2042900D1C0B2FF
:10C910000021019121072BD50399702906D0049A93
:10C920001021059B4A401A4305D00EE040216A467B
:10C930001176012108E06146014306D030216A46A4
:10C9400011760399517602210191049A0821059BE1
:10C950004A401A430CD16146014301D1610707D512
:10C9600030216A461176012101910299491E0291F6
:10C970000399582904D037A103910FA90F910DE015
:10C9800039A1F9E76146059B049AFFF73FFC039B39
:10C990008C469B5C0F9A521E0F92137061460143A6
:10C9A000F0D10F9807A9081A20300390600704D52A
:10C9B000012000048443029801E0012002900399C1
:10C9C000884201DD401A00E00020411802900198E1
:10C9D00009180098401A0090E00306D42146149BE1
:10C9E000139A009800F05AF886190020049008E085
:10C9F00006A9085C149A139990470498401C761C69
:10CA0000049001998842F3DBE0030CD52146149B86
:10CA1000139A009800F042F8861904E0149A302026
:10CA200013999047761C0299481E02900029F5DC64
:10CA300008E00F980F990078491C0F91149A1399E8
:10CA40009047761C0399481E03900029F1DCFBE611
:10CA500009280100303132333435363738396162D4
:10CA60006364656600000000303132333435363798
:10CA7000383941424344454600000000F8B50446B9
:10CA800000251E461746880404D405E039462020B8
:10CA9000B0476D1C641EF9D52846F8BDFFB50446A5
:10CAA000002581B01E46C80301D5302700E02027AD
:10CAB000880404D505E038460399B0476D1C641E10
:10CAC000F9D5284605B0F0BDF7B584B00025168825
:10CAD00007461580406B1446002813D0037805984C
:10CAE000032E51D30221017021881122491C89B2E1
:10CAF000218042542188491C89B2218043542088D6
:10CB0000401C2080386B00281DD0054620880599E0
:10CB100002461232B24237D811220A54208810221B
:10CB2000401C80B220800A542088401C20800F20A6
:10CB30002A5C2388401ECA54228840B2521C22809C
:10CB40000028F5DA0025384620300290807B002846
:10CB500006D033462246059902F06AFF050014D13B
:10CB60000298407B002806D032462146059800F006
:10CB700099FF050009D1B878002823D0059886468A
:10CB80002088001DB04202D90C2007B0F0BD6846D5
:10CB900079DF0028F9D1218803207246505420887B
:10CBA0001921401C80B22080115420887146401CFD
:10CBB00080B2208041186846008804F058FC218823
:10CBC00040182080F878002817D0218803230A46CF
:10CBD000FB56C91C0598B142D6D802218154218840
:10CBE0000122491C89B2218042542188491C89B202
:10CBF000218043542088401C20807868002817D06A
:10CC000021880023C3560A46C91C0598B142BBD8E7
:10CC10000221815421880A22491C89B22180425470
:10CC20002188491C89B2218043542088401C2080DF
:10CC3000388900280AD0009438460196062202213D
:10CC40000830059B04F091FC05009ED1388A00282D
:10CC50000AD0009438460196072203211030059B24
:10CC600004F083FC050090D1388B00280AD0009492
:10CC700038460196152214211830059B04F075FCE6
:10CC8000050082D1386A002806D03346224605992D
:10CC900001F0DCFD0500D8D1786A002806D03346C3
:10CCA0002246059903F0A2F80500CED10298007B38
:10CCB000002807D0334622463846059903F0BDFFC9
:10CCC0000500C2D13878002807D0334622463846BE
:10CCD000059903F0BFF80500B7D1284655E710B510
:10CCE00001220221002001F02DFA002801D007289E
:10CCF00012D107220221012001F024FA002801D0DC
:10CD0000072809D100210A22084601F01BFA002851
:10CD100001D0072800D1002010BD0000044842685F
:10CD2000012109050B46934383600A40C2607047A6
:10CD3000000500500A4902680A60406800228A60C3
:10CD4000CA600A614A614860087AFD2340084000D1
:10CD500018400872A0200882282048828A827047E2
:10CD6000C42E0020F0B501888FB01B292BD10546B9
:10CD7000807B0F35C70805A80230002404902E5D83
:10CD8000641CE4B2285D012802D0FF2809D00FE01E
:10CD9000022E18D1281941780498A41C0172E4B21B
:10CDA00006E028193146049A01F036FEA019C4B2F3
:10CDB000BC42E4D3054900200968002903D06A4633
:10CDC000107505A888470FB0F0BD0000C42E0020E4
:10CDD00070470000054886DF002805D00349083960
:10CDE0004968002900D0084770470000CC2E002079
:10CDF00070B50024064D06E06968E000085C01217A
:10CE000003F0AEF8641C28788442F5D3002070BD8E
:10CE10001C290020F8B515460C460646052A01D205
:10CE20000720F8BD03F072F9002803D103F044F99C
:10CE30000028F6D1104900204E600C70C8608D604B
:10CE400008610E4D0DE0E00069688019009181785D
:10CE50006A46517000780A4A694603F0D1F8002802
:10CE6000DFD12046641EE4B20028ECD1054A00213F
:10CE7000024800F06DF8F8BD1C2900204C17020094
:10CE80009DF601006DEA0100BFF34F8F044903488E
:10CE9000C860BFF34F8F00BFFDE700000400FA0534
:10CEA00000ED00E0014B1B68184700008C310020AA
:10CEB00010B58268C368934203D002F06FFA002075
:10CEC00010BD052010BD002906D0002A02D0531E37
:10CED000134203D0092070470E2070470160838001
:10CEE00000218160C1600846704710B58268C36840
:10CEF0009A1A83889A4203D802F05AFA002010BD89
:10CF0000042010BD38B50C46A2680C235A43064BCA
:10CF100009789D58054A126A009202462046083058
:10CF20002369A84738BD0000FC320020F828002003
:10CF300010B5064914230A785A435118091DFFF702
:10CF4000E1FF042003F062FF10BD0000303200203A
:10CF5000094B9B68002B07D0002A07D0002805D07A
:10CF60000068037C002B03D008207047072070471F
:10CF7000417442610020704730290020FFB59007BE
:10CF8000002581B014460E46002832D11B4F002CDC
:10CF900031D003F08BFD049878610320387033465C
:10CFA0001821224600204B43BC601834C100891868
:10CFB0000D704D708E704C601C19401C0328F5DB01
:10CFC000FD607D7001240E48BD70240504600321BE
:10CFD0001420FFF71FFA0B4804600B4C0198A06067
:10CFE00003211120FFF716FA60683861002005B0B0
:10CFF000F0BD0720FBE7BD60FBE700003029002003
:10D0000080E200E000E100E000150140FEB50D46C1
:10D010001B4917468968044600292AD0002C28D0CD
:10D02000052D01D20720FEBD6069002821D0607C5B
:10D03000012820D0002604F05BFAC00010490190BE
:10D0400089684018694604F07DFA002815D001214E
:10D0500001700C49446049680830E2C008490198F1
:10D060008968411868460078487004F09BF80020F1
:10D07000FEBD0820FEBD2E46DDE70420FEBD0000FB
:10D080003029002000150140F8B5134D0446A96869
:10D0900000291CD0002C1AD06069002817D0002667
:10D0A000267404F025FAC700A8686946381804F009
:10D0B00049FA00280DD0022101704460A86839188F
:10D0C00068460078487004F06DF83046F8BD0820D6
:10D0D000F8BD0420F8BD00003029002010B504463A
:10D0E00009488168C2688088511A814207D10121AC
:10D0F000064803F06BF8002801D0052010BD21463A
:10D100000148FFF7D5FE10BDB0310020F228002005
:10D1100070B50446224888B01E460D0042601CD0FF
:10D12000A888296882B21F48FFF7CDFE002815D1D4
:10D13000A889A96882B21B481030FFF7C4FE0028F6
:10D140000CD1202218496846FFF71AF8A06806900B
:10D150002079002804D0012103E0072008B070BD29
:10D1600000216846017506776079002800D00E20FE
:10D1700069464875E0780290A07803902078019085
:10D18000607800900949684602F0C8FF0028E5D1A0
:10D1900003F076F802480121801C03F017F8DDE760
:10D1A000F0280020B0310020E4160200C113020074
:10D1B00010B50446064801214470401C03F06CF889
:10D1C000112803D121460348FFF78FFE10BD000050
:10D1D000F0280020C0310020F0B50546007D002475
:10D1E00093B00E4600280DD001200146684610314C
:10D1F00003940173717B4173817BF9200140684680
:10D20000891C81731C2104A8FEF7E1FF6946087C94
:10D2100002210843694608742A7DEF21002A02D0C2
:10D220001022104300E008406A46107405940794E9
:10D230000894287D002800D003A8099001270A94AB
:10D2400010469771304A82800094B27B0270F27B64
:10D2500042708078F9221040F722801C1040EF21A4
:10D2600008404108490068468170317B01721421F1
:10D270000BA8FEF7ACFF01A80B9068460C908786C0
:10D28000C486078702A80F90A888AB1D0BAA04A923
:10D29000A2DF002835D1B068002830D068468771F9
:10D2A0001A4981800094317C017000200146684653
:10D2B00041708078F9210840F721801C0840EF2157
:10D2C0000840410849006846817011A8B16800F023
:10D2D000A8FD064614210BA8FEF779FF01A80B90C4
:10D2E00068460C908686C486068711A80F902A4649
:10D2F000E8880E320BA9A3DF002802D100E0EC8100
:10D30000002013B0F0BD0000192A00000829000019
:10D3100010B50C490C4803F083FCC1B209486838C9
:10D3200000F0C0FA00280BD0082809D0074988422D
:10D3300006D00749884203D000221146FFF7A4FD1A
:10D3400010BD0000942E002014280020043000009E
:10D350000134000070B50446808959282CD121A0E1
:10D36000FFF74CF9A1892EA0FFF748F9208C010A9C
:10D3700000020143608C89B2020A0002024395B2A6
:10D380002DA0FFF73BF929462EA0FFF737F92420FF
:10D39000205E01120002014309B22DA0FFF72EF911
:10D3A00000256019C17B2DA0FFF728F96D1C102DF9
:10D3B000F7D32CA0FFF722F9208C2B4988420FD1FC
:10D3C000608C2A4988420BD1A089592808D11020A5
:10D3D00000F0DCFE002803D000221146FFF754FDC8
:10D3E00070BD00002A2A2A2A2A2A2A2A2A2A2A2A18
:10D3F0002A2A2A2A2A2A2A2A2A2A2A2A2A2A2A2A8D
:10D400002A2A2A2A2A2A2A2A2A2A2A2A2A2A2A2A7C
:10D410002A2A2A2A2A2A2A2A2A2A2A2A0000000014
:10D4200041707020636F6D70616E792069643A207D
:10D4300025780D0A000000004D616A6F723A2025C0
:10D44000580D0A004D696E6F723A2025580D0A007A
:10D45000525353493A2025640A00000025303258BF
:10D46000000000000A0A0000341200007856000094
:10D4700010B500221146FFF707FD10BDF0B50C46B0
:10D4800093B01F216A46118007260027918000284B
:10D4900009D0C17849070DD502A9FFF715FB00286F
:10D4A00009D102AD01E000251780002C0ED0E078F4
:10D4B000002802D0304613B0F0BD01AA0AA92046C8
:10D4C000FFF702FB0028F6D10AAA02E06846002214
:10D4D000878068468088C3B268460088C1B2284603
:10D4E00072DFE8E770B50D4604991646040042D095
:10D4F000002E40D0424800224271C36001612422C4
:10D5000031464048FEF73CFE00F0D4F83D49343146
:10D510000846103801602031816038215C38FEF700
:10D5200056FE3848217838380170A1788170E1784A
:10D53000C170617841706269216942610161E2688C
:10D54000A168C26081600146E369A269CB618A611A
:10D55000616A002919D00146AC310246B8324162F5
:10D560008A60636A1B880B80616A436A8988998034
:10D570000021436A06E00E2070BD666AB668765CDC
:10D580005654491C9E888E42F7D8A16A00291CD0A7
:10D590001C4AAC3211460C398A608162A36A9B88AE
:10D5A0008B80A16A836A098819800021836A04E05C
:10D5B000A66AB668765C5654491C9E888E42F7D897
:10D5C0002C210A5D0F4918390A73216A002909D0F4
:10D5D0000B4914310162226A52884A80216A026A28
:10D5E000098811806168002904D00549891D4160BE
:10D5F00061684160034829463838FFF73FFF70BD36
:10D6000058280020802F002010B502881C4C102ABA
:10D6100017D00021112A1AD0192A11D18079002897
:10D620000ED1607901281ED0022822D0032822D0F2
:10D63000042805D12171E2680846002A00D09047ED
:10D6400010BD017D0129FBD18088208110BD617052
:10D65000808821898842F9D1012005E021690029CB
:10D66000F4D0884710BD022000F02CF80028F5D136
:10D6700010BD0320F8E7032020710420F4E7000028
:10D680005828002010B5022801D003280ED1084CDC
:10D69000207800280AD000202070607900F012F86D
:10D6A000002803D02169002900D0884710BD000060
:10D6B0005828002010B507210148FEF788FD10BD4D
:10D6C00070280020F0B5754C87B06071002606A860
:10D6D000069602F0A1FF0127082806D000286FD186
:10D6E0000698002802D02770D4E00696FFF7E2FFE4
:10D6F0006B4D6878002802D06079012805D0A878A1
:10D7000000280AD06079022807D1E168002903D0F7
:10D71000E7700820884700E0E6706079012808D1AA
:10D720006878002809D05D48193002F015FF0028FC
:10D7300003D06079022802D00CE002206071A87842
:10D74000002805D05548193002F006FF002801D105
:10D7500003206071287B002804D16079032801D15F
:10D7600004206071287E002804D16079042801D14A
:10D7700066712671E16800290AD06079032801D01A
:10D78000042805D12878002802D06078002818D015
:10D79000A67018216846FEF71AFD684606700196C5
:10D7A00006720396607901280FD0022816D03C4EED
:10D7B000243637465C3F03281CD004285ED13BE06A
:10D7C00069E0A77007208847E3E7344818300190E4
:10D7D0006846077046820682277152E02F4818304B
:10D7E00001906846077029894182A9880182022038
:10D7F000207146E0A88A69464882288A088228481B
:10D80000243003F021FF002805D02878002802D01A
:10D810006078002801D003202FE0022069460872BA
:10D8200004200396F8701E4800213838FFF726FEC2
:10D83000002830D1052020E0A88B69460882288C7A
:10D8400048821748243003F0FFFE002805D02878CE
:10D85000002802D06078002801D004200DE00220CA
:10D860006946087204200396F8700D480021383884
:10D87000FFF704FE00280ED10620207160790028F1
:10D8800003D0684673DF002805D1E168002901D084
:10D8900020798847002007B0F0BD000058280020FC
:10D8A000802F002073B586B004002FD06A46217CFB
:10D8B000127F0020914227D000250126684600955E
:10D8C0000680458007A80190E188608A6A46A4DF47
:10D8D000002819D16846007F2074608A0D4988426B
:10D8E00016D0207D002813D0029503950495059548
:10D8F000E18868460181867241888181049001989F
:10D900000590608A02A9A6DF08B070BD0E20FBE773
:10D910000820F9E7FFFF000038B50D4604001AD0D3
:10D92000002D18D0286820600020C043608228792C
:10D930002075FF202074012168468170074901800D
:10D94000221D69460120A0DF002803D12946204678
:10D95000FFF742FC38BD0E2038BD00000F18000054
:10D9600038B5002824D0002922D00A88102A1AD0DD
:10D97000112A1AD0502A1BD1027D002A18D0CA8839
:10D980004389891D9A4213D10A8B022A10D1026859
:10D99000002A0DD0CB7E8C7E19022143C907C90F06
:10D9A00007D0002106E0898801E00021C9434182B7
:10D9B00038BD01216B4619706946904738BD00009B
:10D9C00070B5054601461C220E48FEF7D9FB0E4CE9
:10D9D000002626702968002906D00822201DFEF79F
:10D9E000CFFB201D7ADF02E00748001D7BDF002807
:10D9F00007D1401E60806670044A00210448FFF78A
:10DA0000A7FA70BD6C300020782800208D14020029
:10DA1000B0160200F8B5214C028800271E4DE68999
:10DA2000102A15D01E49112A21D0122A2DD0502A91
:10DA30001CD1C288801DB24218D1028B022A15D196
:10DA4000C27E837E10021843C007C00F0CD112E0C3
:10DA50008188698001461048082216310C30FEF793
:10DA60008FFB6F70002E01D100F03AFFF8BD00204F
:10DA7000C04368806F700868FFF706FB0028F5D088
:10DA8000A1690029F2D08847F8BD811D024808220B
:10DA90000C30FEF775FBE7E7782800206C3000209B
:10DAA000B01602007CB5054608880C460930904245
:10DAB00001D90C207CBD684671DF0028FAD121888D
:10DAC0000820685420881B21401C80B220802954E3
:10DAD000208800A9401C80B2208040190622013114
:10DAE000FEF74EFB20886946801D80B220800978B1
:10DAF000002900D0012129542088401C20800020CA
:10DB00007CBD00007FB504460121684681714A4909
:10DB100081804A4A01A90120A0DF00287ED1228805
:10DB200025463C35002A09D044482B46801C0090ED
:10DB30004348616800F0E2FC00287BD12289002A7A
:10DB40000AD03E482B460A3000903D48E168401F0D
:10DB500000F0D4FC00286DD1228A002A0AD0374870
:10DB60002B461230009036486169001F00F0C6FC59
:10DB700000285FD1228B002A0AD030482B461A3069
:10DB800000902F48E169801E00F0B8FC002851D1B8
:10DB9000228C002A0AD029482B462230009028489F
:10DBA000616AC01E00F0AAFC002843D1228D002A21
:10DBB0000AD022482B462A3000902148E16A401EB4
:10DBC00000F09CFC002835D1216B00290ED002A862
:10DBD00003F06DFA19482B4632300090184808229D
:10DBE00002A9801F00F08AFC002823D1606B002866
:10DBF0000BD012492B463A31009102790168104846
:10DC0000401C00F07BFC002814D1A16B002910D02F
:10DC100002A802F0E1FC0948423000E00AE000906E
:10DC200007482B46072202A9273000F067FC00288E
:10DC300000D1002004B070BD0A1800008C2800201C
:10DC4000292A000010B50446FFF78CF8204601F0A1
:10DC50003DF821460A4800F06FF809482146183877
:10DC6000FFF77EFE2046FFF7D5FE204600F0A6F91E
:10DC7000204602F0C9FB2046FFF7C6FC10BD00009D
:10DC8000442E002030B50446008C134A8BB09042DD
:10DC90001FD006AA204601F0EDFD69460546088022
:10DCA0000020019002900390049022898A80012232
:10DCB0008A71088106A803910490208C01A9A6DF2F
:10DCC000002804D169460988A94200D00C200BB075
:10DCD00030BD0820FBE70000FFFF000038B5044618
:10DCE00008682060087960710020C0430D462084D8
:10DCF0000020222108554C210853012168468170DB
:10DD00000C490180A21D69460120A0DF00280FD127
:10DD10002946204601F056FD002809D1A8680028B0
:10DD200005D02946204600F0B7F8002800D1002091
:10DD300038BD00000D18000038B50A88102A17D029
:10DD4000112A17D0502A18D1CA888389891D9A426E
:10DD500013D10A8B022A10D10268002A0DD0CB7E83
:10DD60008C7E19022143C907C90F07D0002106E0A4
:10DD7000898801E00021C943018438BD01216B4637
:10DD800019706946904738BD70B505460446403560
:10DD9000A8890E46142807D12622A118881EFEF74E
:10DDA000EFF9A889401EA88180B241000919401CE2
:10DDB000A8818E8470BD20308170704707B584B013
:10DDC00000280DD0828A114B9A420BD0827D002A06
:10DDD00008D06A46128B142A06D9072007B000BD66
:10DDE0000E20FBE70820F9E7002200920192029240
:10DDF000039282896B461A80039106A90291012140
:10DE00009970808A6946A6DFE8E70000FFFF0000FE
:10DE100070B504460D460846FEF7E4F920806560BB
:10DE200070BD0A7802704978417002207047000086
:10DE30001CB5002348221549082003F01BF80028D0
:10DE400003D000221146FFF71FF80020009069461A
:10DE500001900870684660DF002803D00022114658
:10DE6000FFF712F80A4802F0FBFF002803D0002257
:10DE70001146FFF709F8074803F014F8002803D00B
:10DE800000221146FFF700F81CBD0000B42B002053
:10DE900045DC010099100200F0B58FB00D46064632
:10DEA0001C216846FEF793F9684601780220014379
:10DEB000684601700024019403940494059401279A
:10DEC00008A8069487701549684601840794E97B81
:10DED0000177297C4177807FF9210840F721801C58
:10DEE0000840EF2108404108490068468177142125
:10DEF00009A8FEF76CF908A8099007A80A906846D7
:10DF00008785C4850786A8680D903346F08810334E
:10DF100009AA6946A2DF0FB0F0BD0000382A000050
:10DF20001CB5044681786A460C4802F089FB00283B
:10DF300012D160781C21484309491C2340181A4615
:10DF4000694602F037FC064806494030807A800076
:10DF50000A582146684690471CBD0000E82800206A
:10DF60004C310020C41602007CB5134E00250C462F
:10DF70003060002918D06946002000F0B5F800286C
:10DF800019D101A9012000F0AFF8002813D168468B
:10DF900001790020002901D0022004E069460978B7
:10DFA000002900D00B2020707068002802D1FEF7F5
:10DFB00096FE054628467CBD5028002010B51C4C16
:10DFC0000188606810290DD011290AD1401E6060B7
:10DFD00007D1FEF784FE002803D02168002900D075
:10DFE000884710BD00281ED100210122084600F0FC
:10DFF000A9F8002801D0072811D107220221012009
:10E0000000F0A0F8002801D0072808D1042202213E
:10E01000002000F097F8002805D0072803D02168D9
:10E02000002900D088476068401C606010BD000077
:10E030005028002010B5032000F002FA002801D07B
:10E04000062800D1002010BDF8B50746002423485B
:10E0500002E0641C042C1AD2A2008258BA42F8D101
:10E06000042C14D21D481E4E0C38002929D0012939
:10E070000ED002290BD16000201880194578002DA0
:10E0800005D018480169002901D028468847F8BD05
:10E0900061006118755C8E19717800290CD01149E6
:10E0A0000A224968806851430E4A521CFEF7AEFFAF
:10E0B000002801D10B4847700A48B1781430015547
:10E0C000DDE78068FEF7E0FF064861006118143064
:10E0D0008919005D8D78A842D1D0F8BD8016020064
:10E0E0001C2F00203828002004280CD2074A12696F
:10E0F000074B80001B5C01209840904300D001201A
:10E100000870002070470020FAE70000000500506A
:10E110008016020010B5042804D00A2801D102F0AC
:10E1200051FE10BD06481321808876DF0828F8D0FC
:10E130000028F6D000221146FEF7A6FE10BD000012
:10E140000028002070B50023042811D244000419CF
:10E150000D4D012A02D101290DD00022460080195F
:10E16000094E801900290CD0012906D0022906D0B9
:10E170000723184670BD0D30C2B22A55F9E7427028
:10E18000F7E78270F5E700001C2F002010B5054A64
:10E190000146127A0020D20702D0084600F054F857
:10E1A00010BD00003828002070B50E4620490546F5
:10E1B0004E608D6000200A61A9071ED5002401224F
:10E1C00011462046FFF7BEFF641C042C02D2002833
:10E1D000F5D012E0002810D1720804211548FEF78E
:10E1E00019FE002809D1FEF703FE002805D11148C9
:10E1F000114A00211438FEF7ABFEE90706D00F22C2
:10E200000E4992048A600023CB608A6100280DD1F8
:10E2100008480B4A00211C38FEF79AFE002805D159
:10E220000448084A01211838FEF792FE70BD00002C
:10E2300038280020901602007DE4010000050050FF
:10E2400085FA01001DCD0100FEB57A4D0722EB686D
:10E25000D2049A4302936B6800939C0006461B19F4
:10E2600000200121019389040746734C3300FEF717
:10E27000D5F9180D1515374755677C887F8891DECD
:10E280009E9E9E9E9EC8CED1D8DEDE140F21029A9D
:10E2900089049143A160E7602F70FEBDA260E76032
:10E2A00060680F2292045040400309D5A160E760E6
:10E2B000022E02D1E120C0000AE07D20400107E0EB
:10E2C000E160A760022E01D1C82001E0FF2091305B
:10E2D0002E706421FDF72AFF0099414300223FE0A0
:10E2E000A260E76060680F2292045040400304D5AA
:10E2F000A160E76019204001EAE7E160A760E3E779
:10E30000A260E76060680F2292045040400302D58B
:10E31000A160E760D1E7E160A760D7E7A260E760AE
:10E3200060680F2292045040400302D5A160E7606C
:10E3300001E0E160A7602E700098410000220FE02C
:10E34000A260E76060680F2292045040400302D54B
:10E35000A160E76001E0E160A7602E7000990022F3
:10E3600036480068FEF752FEFEBDA260E7601BE083
:10E3700061680120C00402468A43A2600140E16056
:10E3800010E060680121C9040A468243A260084087
:10E39000E060E3E760680121C9040A468243A260A5
:10E3A0000840E0600199C9E7E160A7602DE02348DB
:10E3B0004068FEF769FE11218A1B01D0002807D0B2
:10E3C0000F22E96892041140A160E760EF60FEBD92
:10E3D00001210905E960012A0CD91046C8214843EA
:10E3E0006421FDF7A3FE6968002241431348406899
:10E3F000FEF70CFE0F22E96892041140E160A7606D
:10E40000FEBD0F218904A160E7602E70FEBD0722CA
:10E41000D204AAE70D218904A160E7600121C904A3
:10E42000C2E703210905A160E7608910BCE70F215D
:10E430008904B9E73828002000050050741602004E
:10E44000F0B500210B4C0C4D03273F048A00A25865
:10E4500092005619326801238B40034000D00323F9
:10E46000BA431B0413433360491C0429EED3002034
:10E47000F0BD0000801602000007005010B50078C3
:10E480000221FFF7E1FD10BD0022D24383000449C1
:10E490000428CA5002D308182030027770470000C1
:10E4A000D0310020F0B50025ED43002A02D0002332
:10E4B000042601E0042308260B4C04E09F00E759E2
:10E4C0007F1C04D05B1CB342F8D32846F0BD26184D
:10E4D0005DB2203635709E00A151002AF5D1E118B9
:10E4E00020310877F1E70000D031002002490918F7
:10E4F0002020085670470000D0310020FFB58FB0B3
:10E500001E4615460F0004D1002211461046FEF7A4
:10E51000BBFC002D04D1002211461046FEF7B4FCCE
:10E520001C216846FDF753FE68460178022001432E
:10E530006846017000240194039404940594012119
:10E5400008A80694817068460F9901840794317871
:10E55000017771784177807FF9210840F721801C8D
:10E560000840EF210840410849006846817714219E
:10E5700009A8FDF72CFE08A8099007A80A9068468C
:10E580008585C485058604480D9709AA69460088D3
:10E59000189BA2DF13B0F0BD8C280020F8B53E48D0
:10E5A0001422017851430C18E0680C2148433A4981
:10E5B0002769CC314018058941890091241D46689E
:10E5C00002F0CCF801463846FDF7B0FD002932D004
:10E5D00000200099A2884D436188AE198918CD1991
:10E5E00000222E4900280A6109D002F0B7F861889C
:10E5F000884222D0B54202D1A08800281DD0A06850
:10E6000002281AD002F0AAF8A188CA1901461046B9
:10E61000FDF78CFD214C8808E06002F09FF8014670
:10E620002846FDF783FD002911D00020B5422FD0E8
:10E6300000280ED02CE00120CBE702F08FF8014635
:10E640003846FDF773FD15494861032021E001209C
:10E65000ECE7ADB2B7B202F081F801463846FDF7FB
:10E6600065FD064602F07AF801462846FDF75EFD94
:10E67000864201D1781B09E002F070F8064602F0EC
:10E680006DF801462846FDF751FD701A800820619B
:10E69000022002F0BBFBF8BD30320020F828002039
:10E6A00010B507481422017851430818007904284E
:10E6B00002D000F059F810BD012002F0A7FB10BDF8
:10E6C0003032002010B50B4814220178514308184D
:10E6D000094AC18811620079012806D0032801D0B7
:10E6E000042801D1FFF75AFF10BD012002F08EFB74
:10E6F00010BD000030320020F828002014225043C2
:10E70000054A002180180171C18001220161C260A7
:10E71000416101817047000030320020F8B5104C93
:10E72000069E65780A2D19D027787D190A2D00D309
:10E730000A3D14277D432D1928716A6103C9296197
:10E74000E860EB802E816078401C6070054800789E
:10E75000002801D1FFF7B6FF0020F8BD0420F8BD66
:10E7600030320020F828002010B50D4C14212078FC
:10E77000484301190020091DFEF7C4FB2078FFF76C
:10E78000BDFF6078401E60702078401CC0B22070D1
:10E790000A2801D100202070002002F037FB10BDB4
:10E7A00030320020F8B52348C16800293ED00E68F9
:10E7B00021494C680769C078E11B0D022D0AED1C48
:10E7C000002814D101201D4A000450601B4A403A21
:10E7D00050601B49400008601A4908601A4901202E
:10E7E00008602F20FDF776FC12490120C870B54261
:10E7F00000D23546E81900020F4B000A403318607A
:10E800000D4A5168001B091B0902090A0002000A8F
:10E81000C91C814209D9506818602F20FDF75AFCA5
:10E8200001200749400480390860F8BD02F03EF934
:10E83000F8BD0000302900200015014040130140C0
:10E8400080E200E000E100E000100140F8B506467B
:10E85000108814468446801D0D46984201D90C202C
:10E86000F8BD32880720062AFAD31927FF01184B72
:10E87000BA4201D99A42F3D171880629F0D3B9423C
:10E8800001D99942ECD19A4203D0994201D08A42EF
:10E89000E6D805216046295420881221401C80B208
:10E8A000208029542088401C80B220804119308863
:10E8B00002F0DDFD2188401880B220804119708867
:10E8C00002F0D5FD2188401820800020F8BD00000E
:10E8D000FFFF000010B500221146FEF7D5FA10BD6B
:10E8E000F8B5164801F04AF8144D00260C3D144CBA
:10E8F000002807D0616900291CD001206A461070E9
:10E90000684616E02878002805D06169002911D0F2
:10E91000684606700DE0687800280DD0A1680948A7
:10E9200000220068FEF772FB002803D0A1690029CD
:10E9300000D088472E70F8BD6168F0E78428002079
:10E940006C300020B016020070B5094B04469E7A68
:10E95000082000250E4207D00648844202D01889BC
:10E96000A04202D10020156070BD052070BD0000DE
:10E9700080310020FFFF00000C214843064910B5FC
:10E98000012240188272911E0181FF21C17207216C
:10E99000FDF71DFC10BD00008031002010B5134CA8
:10E9A000207900071FD46069401C6061E06800287E
:10E9B00001D0042004E001F013F8002803D0022065
:10E9C00002F060FB10BD2069002809D06068C10713
:10E9D00001D00320F4E70121084360600020EFE745
:10E9E000FFF75EFE10BD02F041FB10BDF8280020CD
:10E9F00010B5084841680A0708D48A0702D50122E1
:10EA000011434160022002F03DFB10BD02F02EFBDD
:10EA100010BD0000F828002070B504461546401CC3
:10EA200002F020FD6881E0782873217928460D30B6
:10EA3000152907D01021FDF7CAFB0020E8832884A0
:10EA4000688470BD611D1022FDF79AFB20461530C9
:10EA500002F008FDE8832046173002F003FD288409
:10EA60002046193002F0FEFCEAE70000F8B5002667
:10EA70000124154D23E06968F000471838782146D5
:10EA80002A698140114218D08A432A6101F00AFBA9
:10EA90003A782146EB6891401940034693409942E9
:10EAA0000BD17978012901D0012100E000217B6898
:10EAB0004140002B01D010469847761CF6B22878CA
:10EAC0008642D8D3F8BD00001C290020FEB50E46B2
:10EAD000044681786A46234801F0B2FD002827D118
:10EAE00060780C21204F4843C019807A400620D41A
:10EAF000022E1ED0012E1ED01C4DA0781C21484392
:10EB000019490023F83941181C226846A8470028F3
:10EB100013D0022E0CD020780C21484312490C311E
:10EB20004018807A124980000A582146684690476A
:10EB3000FEBD104DE1E7104DDFE7022EF8D0607802
:10EB40000C214843C019817ABF221140817260783C
:10EB50001C2148430449343941181C231A4668468D
:10EB6000A847D8E7E828002080310020F10F0200F4
:10EB7000B4160200F50902001909020070B5054635
:10EB8000114A124800241C2363431B189B7EFF2B51
:10EB900004D0641C072CF6D3104670BD0A78022AF4
:10EBA00009D01C2262431018FD2282760722103001
:10EBB000FDF7E6FA04E01C2161430818FE21817686
:10EBC0002C700022E8E7000043800000883000201D
:10EBD000F7B505250F4F06460024002E0AD01C204D
:10EBE0006043C019072231461030FDF702FB0028B0
:10EBF00007D00AE01C206043C019018B02988142B3
:10EC000003D101980025046002E0641C072CE4D3C2
:10EC10002846FEBD883000207CB5054681B26A4694
:10EC2000074801F00DFD040008D15421684601F0A9
:10EC300031FD040002D1284601F09AFC20467CBD3B
:10EC4000E828002010B5100003D000221146FEF77E
:10EC50001BF9002010BD00001FB56946087301F0C4
:10EC600083FD002803D000221146FEF70DF903A80A
:10EC700000F026FA002803D000221146FEF704F91E
:10EC800001A805210130FDF7A2FA69464879012261
:10EC90001043E1210840DF210C30084069464871EB
:10ECA000072088711020C871064800900A71064834
:10ECB00000F01AFB002803D000221146FEF7E4F80A
:10ECC0001FBD000045EC010003280020F0B50546FB
:10ECD00093B000200290FF24ED480E9400780028A5
:10ECE0004BD0EC4F3868002847D001A800F0DAF983
:10ECF000002803D000221146FEF7C6F8281D059013
:10ED00002A2069460883FF20002688710E71039629
:10ED1000E04C28880C3C10280ED0A88803AA0221B9
:10ED2000FFF712FE002807D103980C21414309196F
:10ED3000CA7A69468A7148712888132217287CD0BC
:10ED40000FDC10281BD0112853D0132876D014289C
:10ED500013D103980C2148430019C07AFF2871D0C1
:10ED60008DE0CD4918286BD01C286AD0522804D1D8
:10ED7000B87A8000095801A8884713B0F0BDC74F82
:10ED800003AA01213846FFF7DFFD0028F5D10399DA
:10ED90000C20484302220019827211236A46137420
:10EDA0005171A98801810722A91DFDF7E9F9687D44
:10EDB000C10707D04108B6480830405CFF2808D09A
:10EDC0000E9006E03A460EA9A81DFFF701FF0028A5
:10EDD0000ED103990C22514309190E98C8728A7AF0
:10EDE00008231A438A726946887101A8FFF798F8C8
:10EDF00039E103980C2148430119887AFD2210401B
:10EE00008872010706D5C0090DD0002101A8FFF7BF
:10EE10005DFE08E068468079FF2804D001F0A8FB79
:10EE2000FF206946887103980C2250431021001975
:10EE3000817212206946087415E17FE030E001E03C
:10EE4000D5E00EE1EA890EA90020FFF7C1FE0028F7
:10EE50000ED103980C22504300190E99C172837A87
:10EE60000822134383726846817101A8FFF758F89E
:10EE700003980C2148430019C07AFF2806D0039854
:10EE80001C214843834940394018029003981C21B3
:10EE9000484383494218A8880023029982DF6CE71F
:10EEA00068460274039B0C2058430119887A042297
:10EEB00010438872C87AFF2830D01620694608743B
:10EEC0001820434373480E21243818180830FDF7E2
:10EED0007EF903980C2148430019817A402211439E
:10EEE000817203990C2200204A430A901219D27AA7
:10EEF0001C235A436A4B0C90D2180B921C2251438C
:10EF00001A46C43289180791089009903A1DA888BA
:10EF100007AB00217FDF0028C1D1A4E00EA8FFF7D6
:10EF20002DFE002801D00646DBE769460E98887161
:10EF300003990C2251430919C872D2E7787A400824
:10EF400040007872039A0C209446424311198B7A40
:10EF5000FB2003408B7214206F463874A879002878
:10EF600004D0C87AFFF758FEAE797CE0E879400714
:10EF700079D5B879FF2876D008273B438B72EB7A96
:10EF80009B0708D51C2503466B43454D5B199D7EA9
:10EF90006D086D009D76CB7AFF2B64D0A25C022AAF
:10EFA00010D01C2250433E4D072240191030FDF76F
:10EFB000E7F8684680791C2148434019817EFD228C
:10EFC00011400EE061461C225143324A403A8918F2
:10EFD0004A8A1C214843324940180283817E4908ED
:10EFE00049008176012101A8FFF770FD3BE0A87977
:10EFF0000209012A23D10007000F01281FD103981D
:10F000000C2242431219927A120718D5182148434C
:10F010002049243940180E210830FDF7D8F8162071
:10F020006946087403980C2148430119887A6022C4
:10F0300010438872787A0221084378720FE00398AF
:10F040000C2250430019827A80231A4382721520C1
:10F050006A461074B87A8000095801A888470026CB
:10F0600001E068460274324604A901A8FDF71AFFC0
:10F070006846007C122800D07FE603980C214143AB
:10F080000919897A0129F7D0FFF776FC75E60000A7
:10F09000D82800208C310020D4160200FFFF000089
:10F0A00088300020002806D0FF2101704170817057
:10F0B000C170002070470148704700000E800000BA
:10F0C000F0B585B0040036D02948002505604572AA
:10F0D00085722846FFF750FC254818212438FDF793
:10F0E00076F80026FF27304601F042FA214887557E
:10F0F000761C072EF7D35421684681800721C180F2
:10F100001D481C4900900831684601F0A7FB002803
:10F110000FD1184E0120083E3070207800280CD006
:10F1200069468888C988484381B23046103001F06A
:10F13000B1FA05B0F0BD1148FBE7114F00240D48AE
:10F14000A1B202AA083001F07BFA002809D11C20E4
:10F150006043C01900231C2202A901F02BFB0028E8
:10F1600001D03570E5E7641C072CE8D3E1E7000027
:10F170008C310020E028002085F101000E80000085
:10F1800088300020FFB555488FB00068189F1E4694
:10F19000002851D0542F4FD86846FFF783FF00282E
:10F1A00003D000221146FDF76FFE0024684604706C
:10F1B0000471254605970696A9B20DAA484801F0A4
:10F1C0003FFA002806D108220DA90F98FDF711F883
:10F1D000002819D06D1C072DEED368468078079063
:10F1E000FF2829D010982025032810D03D481C2145
:10F1F000301AFCF79BFF012707282DD204A80290A4
:10F20000119800281AD021E068468570E5E7542F50
:10F2100003D040206946087101E0684605716946DF
:10F220000879032108436946087104A8029001A9DE
:10F230006846119AFDF736FE13B0F0BD07993846BF
:10F2400088402749103949680842F5D0079802F0EC
:10F2500013F96846057138E020481C214038301AFF
:10F26000FCF764FF00280BD01C4D1821243D701BB7
:10F27000FCF75CFF00281AD0402069460871DBE7E4
:10F2800004A8029068460571447014480A940C3032
:10F290000B904C380790684680781C2148431149F0
:10F2A0004018089007A80690182005900DE030211E
:10F2B000684601714470C77008480C38807A80072E
:10F2C00003D428461821FCF782FF109869460228CB
:10F2D000087901D00221A5E73843A5E78C31002049
:10F2E000E82800208830002070B5064618480D46F2
:10F2F000007800280ED01749002E0ED0002D0CD01B
:10F300002868002809D0144C2168002907D011482A
:10F310000A3870BD0F48801F70BD084670BD206060
:10F320000522691D201DFCF72BFF2879A072207A89
:10F330000221400840000843FB2210402072E0797F
:10F340000123184308431040E0710020307070BD65
:10F35000D82800200E8000008C31002010B50E4906
:10F3600000234A788C78A24212D0521CD2B24A7042
:10F37000022A00D14B704A78074B920018339A58F2
:10F380000260086910180002000A0861012010BD1F
:10F390000360002010BD00003029002082688388AF
:10F3A0001A4003689A5C0A708168491C8160704742
:10F3B000C26883881A4003689954C168491CC160B7
:10F3C0007047000010B5002803D0112802D0FDF7C7
:10F3D000AFFD10BD0248082241681143416010BDD5
:10F3E000F828002010B51C4C2178204640680129DF
:10F3F00006D0022929D0032912D1000717D513E01E
:10F40000000711D415481422017851430818C18807
:10F41000A28B891A0904090CC18002D001F0EAFD0F
:10F4200010BDFFF7A1F910BD00F0D4FC10BD60695C
:10F43000401C606100F0D4FA002803D0207801F06D
:10F44000E5FC10BDFFF72CF910BD60780449800081
:10F450000858804710BD0000F828002030320020F6
:10F460003817020010B528DFFFF7ACFF10BD10B54C
:10F4700029DFFFF7A7FF10BD10B50446C0B2FDF7A6
:10F4800097FE204610BD00000EB511206946087297
:10F490000B2212A102A87CDF002803D00022114613
:10F4A000FDF7F2FC104878DF002803D00022114657
:10F4B000FDF7EAFC0021FF20913000916A4601919E
:10F4C0001080430053809180D08068467ADF002806
:10F4D00003D000221146FDF7D7FC0EBD42656163E3
:10F4E0005363616E6E657200410300000020704737
:10F4F0000020704700207047F8B506464078182174
:10F5000004464C4324490C2250436118224A0025EA
:10F510004B6818328018AE462F469C46002B0CD004
:10F52000827A1346D20908D05A0606D40D461A4AE2
:10F53000614689B2175908358E46174C0089183430
:10F540003B4672462946A9DF0B2819D0002800D077
:10F550001248012F13D170780C21484300190089FB
:10F560000F4AA7DF00280AD00E49884212D0082887
:10F5700010D0891C88420DD011280BD00020F8BD76
:10F5800070780C21484301230019008972462946EE
:10F59000A9DFE0E70148F8BD6831002041800000A4
:10F5A000FFFF00000230000070B50C460146607895
:10F5B0001822084D50434019382301F0FBF8002869
:10F5C00007D161781822514349194A68521C00D169
:10F5D0004A6070BD68310020F3B585B00D460E203D
:10F5E0006946088268780C2103274843224E3B462F
:10F5F0008019008904AA6946AADF002838D16878F2
:10F6000018214843741A001969460A8A0830FCF721
:10F61000F0FD0028687807D018214843011949688F
:10F6200000290DD0154E0CE00C2141438919897A2F
:10F6300089071DD4182148430019FCF7C8FD17E0BD
:10F640000F4E27506846028A6878182148430019EF
:10F65000426068784843001969460830FCF790FD1D
:10F660006878182148430119382318220598B047B3
:10F67000002007B0F0BD000080310020F509020035
:10F680001909020010B5FFF737FF10BD10B5FFF7DD
:10F690008BFF10BD10B5FFF79FFF10BDF8B50746F3
:10F6A000104E0125BD403068FDF7EEFC00280DD15D
:10F6B0000D4C2069284207D1384600F0F3FC0028A1
:10F6C000E06804D0284303E0A8432061F8BDA843C4
:10F6D000E0602069002228432061A1683068FDF7BE
:10F6E00095FCF8BD4C1702001C29002070B51B4C7E
:10F6F000207900072ED41A481422017851430D189E
:10F700002E6901F02BF80146E8882A89761E8018B8
:10F710008019FCF70BFD21690025002909D06169DA
:10F72000814206D1E56060680121084360600020E5
:10F730000AE000F055F9002802D00220E56003E05D
:10F740002069002803D0032001F09CFC70BDFEF767
:10F75000A7FF70BD01F08AFC70BD0000F8280020F2
:10F760003032002010B51349134801F059FA124CF9
:10F7700081B21C3CA068401CA0600E486038FEF7B7
:10F7800081FA00280BD0082809D00C49884206D0FD
:10F790000B49884203D000221146FDF775FB032177
:10F7A000A068FCF7C3FC002901D0012000E0002084
:10F7B000207010BDA42E00201C2800200430000062
:10F7C00001340000F0B5002406460D46601C010718
:10F7D00095B0090F08A810310C940174297B41746D
:10F7E000817CF9273940891C81741C2105A8FCF70C
:10F7F000EEFC6846017D10200143684601750CA8A7
:10F8000006940A900894099401220B9408A8827621
:10F810001749684601870D94697B08A80175A97B83
:10F820004175817DF7203940891C0140EF2001405E
:10F83000114308A8817514216846FCF7C8FC0EA87E
:10F8400000900DA801900FAA0021304600F012F898
:10F850000146684601811421448181810FA80490EA
:10F860003346F08808336A4605A9A2DF15B0F0BD1B
:10F87000372A0000F7B542790025002A00D0042578
:10F880002222135C0222002B00D01543CBB2FF29A9
:10F8900007D901221543029A090A53709170032671
:10F8A00002E0029902264B7004464034A1890029E7
:10F8B00001D010210D43002716E0B11C142909D9ED
:10F8C000A189C91B4A007900091824302431FCF7AA
:10F8D00057FC0CE0029B7A0012189B19928C1A704C
:10F8E000120A5A70CEB27F1CA189B942E5DCA08908
:10F8F000C01BA081029805703046FEBDF8B51E4CB5
:10F900002078002837D02069002807D00026E0683A
:10F91000002805D00025002E04D013E00126F6E7CC
:10F920000125F8E7684651DF052806D0002806D0F3
:10F9300000221146FDF7A8FA04E0012602E0216941
:10F9400000988847002D12D1608869460880A06819
:10F9500061DF052806D0002806D000221146FDF7F9
:10F9600093FA04E0012502E0E168A0688847002ED0
:10F97000D8D0002DCFD0F8BD5429002041880548AB
:10F980000288914204D34088814201D80120704707
:10F99000002070477C2800201048018CC9B2012942
:10F9A00017D1818C090714D1018D09060A0F03D1E3
:10F9B000828D1206120F0ED0090F012903D1828DFC
:10F9C0001206120F07D0032903D1808D0006000F05
:10F9D00001D000207047012070470000C00F00F0E8
:10F9E00070B50E481422017851430C18256900F0B7
:10F9F000B5FE0146E08822896D1E80184019FCF78B
:10FA000095FB07494A69824206D3824202D10869BE
:10FA1000002801D0002070BD012070BD30320020D0
:10FA2000F8280020800701D000207047012070478F
:10FA300030B51588EC1C9C4201D90C2030BD022445
:10FA40004C5513881C255B1C9BB21380CD54138826
:10FA50005B1C9BB21380012807D0022807D0032823
:10FA600007D0042807D0072030BD002004E0012083
:10FA700002E0CC5401E00320C8541088401C1080E0
:10FA8000002030BD10B50448017AC90702D00078C3
:10FA9000FEF7DAFB10BD000038280020F8B52C492D
:10FAA000C8680A690C780F7989688646944600917F
:10FAB0003EE00099E20055182A7836E018235343B7
:10FAC0006968521CC918AB78D2B2934200D10022A7
:10FAD0000B78022B02D0032B27D123E04E6803467C
:10FAE000014603E0B14204D00B46C96900291CD08D
:10FAF000F8E7002919D08B4208D1C069002805D148
:10FB0000144F0126BE600026B44601270E68C9695D
:10FB1000D961002909D00B689B190B6005E00174BD
:10FB2000C06900E000210028F9D169789142C5D16F
:10FB30002146641EE4B20029BBD1054962460A6130
:10FB4000C8600F71704501D00120F8BD0020F8BDDC
:10FB50003029002000100140F8B504463148002645
:10FB6000C168009107784EE02E48F90080680D18B2
:10FB700043E0002C02D02046E4691FE028781821D9
:10FB800041436A68401CC0B251182870AA7890425C
:10FB900000D12E700A784868012A30D1027C002AF0
:10FBA0002DD18A684260CA6882600A69C260496968
:10FBB00081611C490979002900D0466019494368D0
:10FBC0000A699C46991A0902174B090A994202D2FE
:10FBD0008268891807E06146511A09028268090A99
:10FBE0008A4202D9511A016000E006604660012194
:10FBF00086600174C66101F0DDFA002CB9D1287865
:10FC000069788842BAD138467F1EFFB20028ABD14E
:10FC10000448C1680098814201D00120F8BD00204D
:10FC2000F8BD000030290020FFFF7F0098B001F0F0
:10FC300023FB534A53490320FEF7B6FA002803D0AA
:10FC400000221146FDF720F901A90020FEF78CF9EA
:10FC5000002803D000221146FDF716F96846007906
:10FC6000022879D000206946474A087007CA05ABC8
:10FC700007C3FF21013145480190401802910491CA
:10FC800003900323424A01A905A8FDF741FA002881
:10FC900003D000221146FDF7F7F8FEF7C9F86846D1
:10FCA0000078FEF7D9FFFFF7EFFB382101A8FCF73A
:10FCB0008EFA022168460171012484710621C17106
:10FCC000032585823348069024210FA8FCF77FFA8C
:10FCD00010A80472FF20E13000241390B420009497
:10FCE00014902D4B0FAA214601A8FDF7FBFB00281D
:10FCF00003D000221146FDF7C7F800F0E5FF00F041
:10FD000039FF1C216846FCF762FA0520C003019008
:10FD10000F20000402900094684605731F488189F3
:10FD20006846C18104741E4805901E4806906846C6
:10FD3000FDF746FE002803D000221146FDF7A4F887
:10FD400019A0FCF75BFC13481B49203801601B49D4
:10FD50004160FCF7EFFF00E008E019A0FCF74EFC63
:10FD6000FDF738F80320FDF7ADFC02E001207AE74B
:10FD700048DF0028FCD000221146FDF785F8F7E7A0
:10FD800015E10100CD0C000068160200102C0020C7
:10FD9000591302002C280020E3030200442E002007
:10FDA00035050200D5E801005363616E6E6572206F
:10FDB000696E69740A00000055D3010071D4010016
:10FDC0005374617274696E672065786563757469D0
:10FDD0006F6E000010B504480822416891434160ED
:10FDE000007801F013F810BDF828002070B5144613
:10FDF00082880E4605462088111D4118921C9942A2
:10FE000001D8FE2A01D90C2070BD521C3254208822
:10FE1000FF21401C80B2208031542088401C80B2D9
:10FE200020808119288801F022FB2188401880B2A7
:10FE30002080AA88002A09D0A968002908D0801942
:10FE4000FCF79EF92088A98840182080002070BD0A
:10FE5000072070BDF8B50F46017814460546012904
:10FE600002D16878002806D02088821C9A422DD8BA
:10FE7000012902D006E00720F8BD69784118891CE5
:10FE8000994223D8181A801E86B2684606802188B7
:10FE9000B81C081869467DDF0028EDD128780228B3
:10FEA00005D169460988B14201D809210AE0082133
:10FEB000012805D16878B04202D86A46108001E076
:10FEC0006846068068460088FE2801D90C20F8BDE7
:10FED0002288401CB8542088401C80B220803954AD
:10FEE00020886946401C2080098840182080002016
:10FEF000F8BD0020704700207047002070470000C8
:10FF00008207D30EFF229A408907090E10B5994047
:10FF100000280BDA03071B0F083B9C080C4BA400BE
:10FF2000E318DC6994430C43DC6107E08408094B67
:10FF3000A400E418236893430B432360C106C90E51
:10FF400001208840044908600449086010BD000091
:10FF500000ED00E000E400E080E200E000E100E00D
:10FF6000F3B581B00F46019800F01EFB0124002874
:10FF70001E4E019817D0FEF7B9FA80192030007F85
:10FF80008009032802D0012806D007E0184800693C
:10FF900001998C40204201D1022100E00321019807
:10FFA00000F0F8F9FEBD00F00BFB0028FAD0019834
:10FFB000FEF79CFA05468100C81D0E4AF9308918E3
:10FFC0000A6980B222430A610B494018002101608E
:10FFD000002FE7D00198FEF789FA800030580028FA
:10FFE000E0D00648AC404460FEBD0000D0310020A7
:10FFF00000050050006500400060004000630040C4
:020000040002F8
:10000000FEB5044623480E4600192021415600271C
:10001000C8171346401C01D0082738E0F27819466B
:100020002046FEF73FFA0546401C2FD0B078002846
:1000300007D01948A10009180868022290430860F7
:1000400007E000217378204600910A46019100F0F4
:1000500069F9F078002810D01048AA0010183178FB
:1000600002690F4B1A400261E206D20C8907890B24
:100070000A4301690A43026109E0064832784019DF
:100080002030017F92011143017700E004273846B8
:10009000FEBD0000D0310020000700500065004088
:1000A000FFE0FCFF03490969C140C807C00F00D049
:1000B000012070470005005070B5124D28790028C6
:1000C00001D0082070BD0F4900204039421E0B1896
:1000D0002033401CC0B21A702028F8D300242046D8
:1000E000FEF7D2F9641CE4B2082CF8D303210620F1
:1000F000FFF706FF01200449C0074860012028716E
:10010000002070BD103200200063004002480079DA
:10011000002800D00120704710320020F3B50446BB
:10012000244881B0807D002801D00820FEBD002C2D
:1001300000D1214C206800F022F9207801273946AF
:100140001E4E8140B1600021606800F00FF91C4D27
:10015000A0696862607D217D0843E86603CCE860A1
:100160006961207B083C01280ED10021A06800F0C5
:10017000FDF8E06800F003F9207B39468140B1606A
:10018000E168A068A96028610A4E02987060216940
:100190003160002806D00C4A217F0A4850600220B6
:1001A000FFF7AEFE042028600020F074B074B7752D
:1001B0007075FEBD183200200417020000050050C3
:1001C000002500408000020000230040F8B5294DC2
:1001D000EA7C002A01D01120F8BDE974E860002013
:1001E0002875687D002801D100F0A8FC6868224CC1
:1001F000002805D081202149800048600020F8BDFA
:10020000FF212531204600F0DFF80546FF210931A6
:10021000204600F0D9F80746FF214531204600F07E
:10022000D3F80646394631432943E9D028463043BE
:1002300006D100F05DFC0F48C17C007D8142DFD813
:10024000FF21453100206050FF21253160500949D0
:10025000002DC87401D00320F8BD002E01D00F205E
:10026000F8BD497D0120002901D02060C6E760600B
:10027000C4E70000183200200020004000230040A6
:1002800010B5044C607D002803D100F057FC01201C
:10029000607510BD18320020F8B5204C0026A27CF5
:1002A000002A01D01120F8BDA174A0600020208296
:1002B0001B4DFF271D37E8510120A86001F026F8EB
:1002C0006168002911D024E0FF270137294614482E
:1002D00000F07AF8002802D1208AB842F6D1208AAC
:1002E000B84203D001F012F800E03D46A07C218A1C
:1002F0008842E9D8218AC81FF9380CD0084F29460E
:10030000384600F061F80028F9D00120F86000209C
:10031000A0743046F8BD0F26F9E70000183200201F
:100320000020004030B552000A439900039C0A4364
:100330002102049D0A4329040A430249800040180F
:10034000026030BD0007005030B552000A439900EA
:10035000039C0A432102049D0A4329040A430249DB
:1003600080004018026030BD000700501CB500221C
:100370000B46009211460192FFF7E6FF1CBD1CB52B
:10038000002100910B46012201911146FFF7DCFF8D
:100390001CBD0000820006481018026803231B04DD
:1003A0009A430260026809040A4302607047000031
:1003B00000070050034940180068012800D00020C1
:1003C00070470000006000404058002800D0012025
:1003D00070470322120280184068084000D00120B4
:1003E000704710B500280BD0032808D10220FDF774
:1003F000CDFE002803D000221146FCF745FD10BDBC
:1004000000F0E0FC10BD00001CB504460088102878
:100410002BD0112839D019284DD01B2824D10822DF
:10042000A11D6846FBF7ACFE68468079D7281BD132
:1004300068464079D72817D1684600790E2813D12D
:100440006846C07800280FD1684680788A280BD18A
:1004500068464078512807D119A0FCF7CFF80D2144
:1004600061561DA0FCF7CAF81CBD1FA0FCF7C6F81A
:100470000720FDF78BFE002803D000221146FCF771
:1004800003FD1F49A08888801CBD1EA0FCF7B6F89C
:100490000020FDF77BFE002803D000221146FCF768
:1004A000F3FC1120FDF772FE0028EDD0002211466A
:1004B000FCF7EAFC1CBD1AA0FCF7A0F81CBD00006C
:1004C000424C455F4741505F4556545F4144565F3B
:1004D0005245504F52540A00525353492832293A38
:1004E0002025640A00000000424C455F4741505FF0
:1004F0004556545F434F4E4E45435445440A000011
:1005000000280020424C455F4741505F4556545FEC
:10051000444953434F4E4E45435445440A0000005E
:10052000424C455F4741505F4556545F54494D45E5
:100530004F55540010B50078002809D105483B21DB
:10054000808876DF002803D000221146FCF79CFC4F
:1005500010BD0000002800200021425C002A01D0CC
:1005600001207047491C0629F7D30020704700007E
:1005700070B505461C200B496843441820461130CD
:100580000621FBF724FE20461021FBF720FEFF2169
:1005900021740020A176C0432083284600F06CFF20
:1005A00070BD000088300020044908182021415601
:1005B000042901DB0120704700207047D031002062
:1005C0000449081820214156042901D2012070470E
:1005D00000207047D031002070B50D00044604D1D2
:1005E000002211461046FCF74FFC002C04D10022DB
:1005F00011461046FCF748FC287820706988617025
:10060000090AA170A988E170090A2171E88860715E
:10061000000AA07170BD000007490979490701D49B
:1006200008207047002804D0044949780160002060
:1006300070470E2070470000F8280020303200205C
:1006400030B5124B1B795B0701D4082030BD002860
:1006500005D0002A03D00468002C10D101E00E2040
:1006600030BD0B4B1D68002D09D0456818894143EA
:1006700069185D89454358682818884201D80720C1
:1006800030BD14600020516030BD0000F82800200B
:10069000FC320020FEB5054625480E46007940078D
:1006A00001D40820FEBD002D03D02868002834D1D5
:1006B00001E00E20FEBD1F4C216800292DD060896D
:1006C00021894843616841186868814225D9FFF74C
:1006D000A9F900280FD06868019029680C225143BD
:1006E0000F1979680091401A39890C46FBF71EFDF5
:1006F000002912D101E01020FEBD21463046FBF753
:1007000015FD002909D1002E07D0788944430198AE
:10071000811900980019814201D90720FEBD0020EF
:1007200002460090334629460320FDF7F7FFFEBD41
:10073000F8280020FC32002010B507484469601CEE
:1007400006D000F00BF801462046FBF7EFFC10BD89
:1007500001200007406910BD0010001001200007B3
:10076000006980B27047000070B500240F4825462C
:10077000047044702846FDF7C1FF6D1C0A2DF9D3A3
:100780000B4D6C80FFF7D8FF861EFFF7E7FF46434F
:100790000648AE60CC306C610460048144812C70EA
:1007A000AC610420EC616860002070BD3032002034
:1007B000F8280020FFB5274881B000791F4616466B
:1007C0000D46400702D4082005B0F0BD002D06D02C
:1007D0000198002803D02868002815D101E00E20D8
:1007E000F2E71D4C206800280ED0618920896268DC
:1007F000414389186A68914206D9002E04D0B0425C
:1008000002D3F119814201D90720DDE70198FFF7F2
:1008100009F900281BD03846FFF704F9002816D044
:100820006868FFF7FFF8002811D068683246C119E0
:100830000198FBF7A5FC009628680C214843245832
:10084000002202212846019BA0470020BCE710207F
:10085000BAE70000F8280020FC320020F8B52C4D43
:10086000044628790E46400701D40820F8BD002C24
:1008700020D0002E1ED0206800281BD0FFF76EFF6E
:100880000146A088814213D3102811D3E0880028A4
:100890000ED0FFF751FF471EFFF760FF4743E28886
:1008A000A188A8684A431218974201D3890703D048
:1008B0000720F8BD0E20F8BD6988012926D03160D7
:1008C0000C22144B51437060CA1850602068585075
:1008D000A0881081E0885081FFF740FF0646FFF7AF
:1008E0003DFFA188E288401E514340183146FBF786
:1008F00033FC0446FFF732FF0146A868614308183D
:10090000A8606888401C68800020F8BD0420F8BDFD
:10091000F8280020FC320020F8B5044620481E4686
:10092000007915460F46400701D40820F8BD002F76
:1009300005D0002C03D02068002815D101E00E203E
:10094000F8BD1848016800290ED042890189406825
:100950004A4310186268904206D9002D04D0A9427B
:1009600002D3A819884201D90720F8BD3846FFF7FD
:1009700059F8002811D03046FFF754F800280CD061
:100980006068FFF74FF8002807D02B463A4621460B
:1009900001200096FDF7C2FEF8BD1020F8BD000052
:1009A000F8280020FC32002010B5114902460878D2
:1009B000002811D004280FD0022A16D0032A0BD108
:1009C0000A79120711D48A69521C8A61032A08D055
:1009D000022802D000F01AFA10BD487800F052FB4D
:1009E00010BD0D20FCF7A4FA10BDFEF7FBFC10BDF6
:1009F000F8280020F8B5044620481E460079154620
:100A00000F46400701D40820F8BD002F05D0002C68
:100A100003D02068002815D101E00E20F8BD184849
:100A2000016800290ED04289018940684A431018A4
:100A30006268904206D9002D04D0A94202D3A819B9
:100A4000884201D90720F8BD3846FEF7EBFF0028A1
:100A500011D03046FEF7E6FF00280CD06068FEF7A4
:100A6000E1FF002807D02B463A4621460420009695
:100A7000FDF754FEF8BD1020F8BD0000F828002056
:100A8000FC32002010B507480078002809D005483E
:100A90000549243000F0C4F881B203487038FDF7EE
:100AA00073F910BD00280020B42E002070B5012479
:100AB0000B49600408600B494010886009494039BF
:100AC0008860094D6C602F20FBF704FBAC60074D7C
:100AD00000242F202C61FBF7FDFAEC7070BD0000A4
:100AE00080E100E040130140001001403029002067
:100AF000FF21074809310022425006488169064813
:100B0000037DC268D154017D491C01757047000006
:100B10000020004000250040183200201FB50122AF
:100B200069460A7008720448C16801910021C174C5
:100B300006C8684690471FBD18320020FF220548AE
:100B4000253200218150FF220932815001210160AC
:100B5000704700000020004010B504480122417891
:100B6000514041700248FDF726F910BD00280020D1
:100B7000442E002070B5144801245121642584605E
:100B800022C004711049114800F03EF80E488C2133
:100B900010300160FF212D3141600A218160002663
:100BA000067301460948083000F02EF80648FF2178
:100BB00020300560F53184604160067301460348CA
:100BC000103000F021F870BD942E00201428002071
:100BD00010B503680A6889689C1A8C4202D9591AB0
:100BE000016010BD01210260017110BD10B54B689C
:100BF000026889689C1A8C4202D95118016010BDA4
:100C000000210360017110BD0A7B002A03D04968EE
:100C10000160002102E00968016001210171704753
:100C200010B5044600790028204602D0FFF7DEFF09
:100C300001E0FFF7CDFF206810BDFFB50746806AD1
:100C400081B0144600283DD0002538462030009061
:100C500033E00C20B96A68430E18B088801CFE2867
:100C600002D90C2005B0F0BD22880299401C88549E
:100C700020881622401C80B2208002990A542088C5
:100C8000401C80B2208002994118308800F0EFFBB0
:100C90002188401880B22080B288002A0AD0B1682A
:100CA00000290FD0029BC018FBF76AFA2088B18890
:100CB000401820806D1C0098EDB2007BA842C8D877
:100CC0000020CFE70720CDE730B59BB0032118A85F
:100CD0000172142110A8FBF77AFA0024012510A84C
:100CE000109405711AA81290601C0107090F10A832
:100CF0001031017344738473601C0107090F10A83D
:100D00001031C1730020014610A801740146274824
:100D1000FCF7E4FF002803D000221146FCF7B4F8EA
:100D2000142115A8FBF753FA0120014618A8103129
:100D300041700120014618A8103181700020014641
:100D400018A8C1700120014618A81031017110A81F
:100D500015940576642118A817940170134815A9F5
:100D60001838FCF7D9FD002803D000221146FCF703
:100D70008BF840216846FBF72AFA0DA16846FDF77B
:100D800047F80120014608A81031017700200146EC
:100D900008A841776846FCF7B5FE002803D000227A
:100DA0001146FCF771F81BB030BD0000442E002046
:100DB0004E6F7264696353656D69636F6E647563CA
:100DC000746F720010B50020FDF7E0F9002803D021
:100DD00000221146FCF758F81120FDF7D7F900283A
:100DE00003D000221146FCF74FF8FDF723F9002845
:100DF00003D000221146FCF747F83CDF002803D05F
:100E000000221146FCF740F810BD000010B50F4954
:100E10000028087009D0012811D0022812D0032818
:100E200002D14869FEF71EFB10BD00208861C86131
:100E3000074840780028F7D0FDF744FC10BD00F0CB
:100E4000D9F810BD00F038F810BD0000F8280020D7
:100E50003032002010B508461146C046C04610BDCD
:100E6000002803D00249C860002070470E20704758
:100E70005429002070B5002901D08C0701D007202B
:100E800070BD064C0125A16062800549636010DFDA
:100E90000028F5D1257016202EDF70BD54290020C2
:100EA000550E0200002803D0024908610020704757
:100EB0000E20704754290020F8B5164C14226068A3
:100EC0004008400060601448017851430E183769AB
:100ED000FFF744FC01463846FBF728F905466061F8
:100EE000FFF73CFC0146F0887F1EC019FBF71EF996
:100EF00002228542606801D1104300E090436060A7
:100F0000E1681040084303D0002000F0BBF8F8BDB2
:100F10000220FAE7F82800203032002010B50248FD
:100F20004069FEF79FFA10BDF828002010B5FFF7C2
:100F300003FC441EFFF712FC4443FFF70FFC044977
:100F40004A69521E5043CA682146FEF790FA10BD06
:100F5000F8280020F8B510481422017851430C18E5
:100F60002569FFF7FBFB0146E088228980184019BC
:100F7000FBF7DCF80F46FFF7DFFB461EFFF7EEFB43
:100F80004643E0882289F1198018044A4019126901
:100F9000FEF76DFAF8BD000030320020F82800207E
:100FA00070B5FFF7DBFB0546FFF7C6FB441EFFF7F6
:100FB000D5FB60432946FBF7B9F8FEF753FA70BD3D
:100FC00070B5FFF7CBFB8608FFF7C8FB07494969F7
:100FD00048430446FFF7B0FB451EFFF7BFFB6843DD
:100FE00032462146FEF743FA70BD0000F828002083
:100FF0000020704770B514481422017851430C1832
:10100000241DFFF7ABFB6188104E884211D2FFF719
:10101000A5FB61880D1AFFF7A1FB8208A188E06893
:101020004018216940194919FEF721FAFFF796FB8C
:1010300007E0A288E06880188A082169FEF717FA9D
:101040006088F06170BD000030320020F828002078
:1010500010B505480079000703D4012000F012F80C
:1010600010BD00F003F810BDF828002010B50448AA
:101070000822416891434160407800F003F810BDB8
:10108000F8280020024948700249800008580047AB
:10109000F82800202417020010B50446FFF784FC4E
:1010A0002046FBF795FE2046FCF7ECFA10BD70B524
:1010B0000C00054604D1002211461046FBF7E4FE61
:1010C000002D04D1002211461046FBF7DDFE2078EA
:1010D00028702088FF2109020840000A68702068F3
:1010E00009020840000CA8702068000EE870207902
:1010F0002871207A68712089000AA871A068000C04
:10110000E87170BD10B505480079000702D4FDF7FD
:10111000C7FA10BDFFF7AAFF10BD0000F828002095
:10112000FEB51F4C00252769E06802906846FEF76F
:1011300015F90190FEF7B2FC06460198002822D06E
:1011400000230098E16817E00E680A46864202D93B
:10115000301A086012E0801BF31800261660D6686B
:10116000D169B446002E07D0FE183602360A566002
:1011700066469660D56115460029E5D12846E160AE
:10118000FEF7EAFC06E02846FEF7E6FC002801D15F
:10119000002E02D00298FDF705FB00202071FEBD55
:1011A0003029002001200249000508607047000036
:1011B00000E200E010B50E4BD968002906D00268A5
:1011C0000C68A24204D8A21A0A60C161D86010BD9E
:1011D0000B4604E00B46C969121B002904D00C68B9
:1011E0009442F7D3A41A0C600260C161D86110BDAB
:1011F00030290020F8B51E4DEC68002C36D01D4873
:10120000002740682969401A0602360A2068B04261
:101210001AD8361AC7192246107CE469002811D062
:10122000002010746B69002B09D0916950699847B0
:10123000002807D000221146FBF726FE02E0516984
:1012400090698847002CE1D16978A878814206D15D
:10125000401CC0B2A870022801D10020A870044927
:101260000006800D18310F50FFF79CFFF8BD0000FD
:10127000302900200015014010B500231D4A05212A
:101280001846FBF77BFE002803D000221146FBF72F
:10129000FBFD194A01211948FBF75AFE002803D02B
:1012A00000221146FBF7F0FD1448154A0121001DEC
:1012B000FBF74EFE002803D000221146FBF7E4FDA9
:1012C0000E48104A01210830FBF742FE002803D0E7
:1012D00000221146FBF7D8FD08480B4A01210C30CB
:1012E000FBF736FE002803D000221146FBF7CCFDA9
:1012F00010BD0000EC29002011D301005816020097
:1013000065F70100850A0200590B0200FF2107481A
:101310001D31002242500648028A8168895C028A97
:10132000521C02820348C161704700000020004047
:1013300018320020002500401FB500216A461170B8
:101340001072044882680192817406C8684690470A
:101350001FBD00001832002070B50178002909D0A7
:10136000012901D0022904D1002240681146FBF76F
:101370008BFD70BD104C0F4DA0782818FBF7AEFE0A
:10138000A078401CC2B2A818A2702038C07F0A28DA
:1013900001D0142AEDD307490848FCF70FFD0828AF
:1013A00005D0002803D000221146FBF76DFD002078
:1013B000A07070BDFC2B002000280020102E002003
:1013C0007CB50178254D01290AD002292FD00029AA
:1013D0002CD129462248FBF76BFD00282ED031E0A6
:1013E000406801781E481038FBF77FFD1C4C103C0C
:1013F000002805D001216A4611700190684608E076
:10140000A068E168081A012805D100206946087023
:10141000684669688847A068E168081AA188884218
:1014200004D80E480121801CFEF7D0FE7CBD0221AD
:101430006A461170C068019068460CE001210748B7
:10144000FEF72AFF06488168C0688842EED1032073
:10145000694608706846696888477CBDF0280020A6
:10146000C0310020417802780802104370470870AC
:10147000000A4870022070470121814002484268FA
:101480008A43426070470000D828002038B51549CB
:10149000154A488890420FD04A78144C521CD2B258
:1014A0004A70237B934208D3091D75DF002803D0BF
:1014B000A169002900D0884738BD00254D70217CE6
:1014C000002907D03B2176DF002803D0A16900293D
:1014D00000D0884761690029EED0684605708847CA
:1014E00038BD000078280020FFFF00006C3000208D
:1014F00012494868C005C00D19D0103840B2002804
:1015000007DA0207120F083A920892005118C969C7
:1015100004E081080A4A8900891809688007C00E1A
:10152000C1400806800F012803D0032803D0022001
:1015300070470020704701207047000000ED00E078
:1015400000E400E042788378521CD2B2934200D18A
:1015500000220378934201D1002070470A7041684D
:1015600040781822504308187047FFB583B01646DC
:101570000C9D0D9C1F46022200950194039800F0DB
:101580000CF8002807D13B46102231460095019403
:10159000039800F002F807B0F0BDFFB583B007462E
:1015A00000200C9C8646268805463AE07868A9000B
:1015B00042181188684681805188C180002269469E
:1015C00001A865DF002839D1684601780598814275
:1015D00026D17046002801D0002200E00222208897
:1015E000891842180D998A4227D8714600290AD1D4
:1015F000401C80B22080069A049911542088401C17
:10160000208001208646218806980A18694601A88C
:1016100065DF002812D169462088097840182080AB
:101620006D1C3888A842C1DC704600280AD020888A
:10163000801B401E80B2FF2802D90C2007B0F0BDED
:10164000069988550020F9E70179002902D1007B2D
:10165000002800D0012070476C2900208C29002030
:10166000AC290020CC2900200B09080A0100000049
:1016700000509D00DC2E0020FC2E0020282F002092
:101680001000000011000000130000001400000012
:101690001000030049E001001100030049E00100CF
:1016A0001300030049E001001400030049E00100B9
:1016B0004C300020FBFE0100D9F50100F5F40100DB
:1016C00095F60100F7FE0100A9F50100F1F4010013
:1016D0008DF60100F3FE0100F9F40100EDF40100C4
:1016E00085F60100090000000B0000000A00000060
:1016F00008000000000000000000000000509D00F5
:1017000003000000090000000B0000000A000000B8
:1017100008000000000000000000000000509D00D4
:1017200003000000A10F0200C10F02001D0F020004
:10173000550F02002D0F020051100200F1E90100C7
:101740009DE9010005110200EDF6010008330020BB
:101750000300000074170200002800206C01000044
:10176000D2C20100901702006C290020BC110000B9
:1017700046C6010042010327FFFF0C2A0D18010095
:101780000F1801000A180103FFFFFFA11424F40041
:040000050001C0C175
:00000001FF
