:020000040001F9
:10C00000D839002015C101002FC1010031C1010044
:10C010000000000000000000000000000000000020
:10C0200000000000000000000000000033C101001B
:10C03000000000000000000035C1010037C1010010
:10C0400039C1010039C101003DC5010039C10100FC
:10C0500039C101000000000051C30100E9C2010024
:10C0600039C1010039C1010039C1010039C10100E4
:10C0700039C1010039C1010039C1010039C10100D4
:10C0800039C101009DC4010039C1010039C101005D
:10C09000BDC4010039C10100C5C4010039C101009E
:10C0A00039C1010039C1010000000000000000009A
:10C0B0000000000000000000000000000000000080
:10C0C0000348854600F0DCF80048004761F00100B5
:10C0D000D8390020401E00BF00BF00BF00BF00BF16
:10C0E00000BF00BF00BF00BF00BF00BF00BFF1D155
:10C0F00070470000401E00BF00BF00BF00BF00BF70
:10C1000000BF00BF00BF00BF00BF00BF00BFF1D134
:10C11000704700000321094802680A43026008488A
:10C1200002680A4302600748804707480047FEE765
:10C13000FEE7FEE7FEE7FEE7FEE70000240500401D
:10C1400054050040E9C40100C1C0010030B50B46F0
:10C15000014600202022012409E00D46D5409D42E1
:10C1600005D31D469540491B254695404019154667
:10C17000521E002DF1DC30BD70B50024254600288C
:10C1800001DA01244042002901DA01254942FFF782
:10C19000DDFFAC4200D04042002C00D0494270BDCF
:10C1A00010B5431A934209D28318881803E0401E41
:10C1B00001785B1E1970521EF9D210BD03460B4365
:10C1C0009B0703D009E008C9121F08C0042AFAD24D
:10C1D00003E00B780370401C491C521EF9D210BDBD
:10C1E000D2B201E00270401C491EFBD2704700220F
:10C1F000F6E710B513460A4604461946FFF7F0FF66
:10C20000204610BD30B504460020034600E05B1C0C
:10C21000934203D2E05CCD5C401BF8D030BDF0B55A
:10C220001FB40646002082B00546402401910090CC
:10C230001BE0019922460F46304600F043F8049A6D
:10C24000059B801A994110D310461946224600F0EA
:10C2500029F8361A8F410197224601200021009FBC
:10C2600000F020F838184D4100902046641E002848
:10C27000DFDC019B00982946324607B0F0BD000084
:10C28000064C0125064E05E0E36807CC2B430C3C29
:10C2900098471034B442F7D3FFF716FF7C0502002D
:10C2A0009C05020010B5202A04DB0146203A91408B
:10C2B000002010BD914020239C1A0346E3401943FF
:10C2C000904010BD10B5202A04DB0846203AD0402B
:10C2D000002110BD0B46D340D0402024A21A91402B
:10C2E0000843194610BD000070B50E4801680029CA
:10C2F00017D0002404600C4DA8680C4E80B24B216E
:10C30000F080090148430A49FFF720FF4100401827
:10C3100081B2B18007A000F093F90C490120486078
:10C320002C6070BD007100400075004000280020A6
:10C33000FF030000564444204D6561737572656DBE
:10C34000656E743A202564206D560A000070004026
:10C35000F8B50024FF25013501262746009428461C
:10C3600003F02CF9002808D034484068304204D04B
:10C37000334800212818344301602D1D76007F1CAE
:10C38000ADB2042FEBD3FF207D3003F017F9002866
:10C3900007D02C4800210160400704432A48006967
:10C3A00000902A4F200712D00126002526420AD0ED
:10C3B0002748AA00111808690969C004C00E89033A
:10C3C000BA58890F904776006D1C042DEED3002CCF
:10C3D00030DA00241D4E0021301940304156491CEE
:10C3E00025D00778BD06AD0E284601F04BFC800035
:10C3F0003658002E1BD0BF090121A940154AA800BC
:10C4000080180068009A8003800F114202D0022831
:10C4100002D00CE003280AD1032F05D102280AD04C
:10C420000221284603F0BAF839462846B047641C72
:10C43000042CCFD3F8BD0321F3E7000000630040D4
:10C44000006000407C610040000500509C300020EE
:10C4500000650040000700508307FF22DB0E9A4072
:10C460008907090E994000280BDA0007000F0838E9
:10C47000830808489B001818C36993430B43C361A2
:10C480007047830804489B001B18186890430843B2
:10C490001860704700ED00E000E400E010B50649C8
:10C4A0000020086048608860C8600349403908601F
:10C4B000486003F009FE10BD4011014010B503F0C3
:10C4C00099FD10BD10B507484068002807D0804787
:10C4D000002803D00022114600F0C4FC10BD02F079
:10C4E00033FC10BDD028002010B502F07BFC0028E2
:10C4F00005D00E490C484860C8130D4988610D48A5
:10C50000018CC9B201290ED1818C09070BD1018D93
:10C510000906090F042906D1808D0006000F02D1FB
:10C5200005490120886010BDDFFF07C000050040FD
:10C53000006C0040C00F00F000060040F0B53C4D1C
:10C54000012185B04902284603F047F8012700265B
:10C55000384C002823D0FF212531284603F038F835
:10C5600000281CD0FF2025302E5081203249800029
:10C570008860607D002800D16F60022168460170EC
:10C580002E49086808600390E17C68460172E06803
:10C590000190E67406CC6846083C90471DE00421F3
:10C5A000284603F01AF8002817D0FF210931284641
:10C5B00003F00EF8002810D003F040FBE07C217D52
:10C5C00088420AD1607D002800D16F6081201A491D
:10C5D00080008860207D03F047FBFF211D31284645
:10C5E00002F0F6FF00280DD0A07C218A884202D9F3
:10C5F00003F0ACFD06E0FF211D316E50002801D094
:10C6000003F0BAFDFF214531284602F0E1FF002882
:10C610000CD0FF2045302E50607D002800D02F60C8
:10C62000E07C002802D0207D03F01EFB05B0F0BDA9
:10C6300000200040E430002000230040802400401F
:10C640000FB410B503A9044B044A029800F024F873
:10C6500010BC08BC04B0184711EB0100CC28002026
:10C6600030B47446641E2578641CAB4200D21D466B
:10C67000635D5B00E31830BC184702E008C8121F76
:10C6800008C1002AFAD170477047002001E001C1BB
:10C69000121F002AFBD17047FFB591B00F46054627
:10C6A000002606E025280AD0149A139990476D1C9D
:10C6B000761C28780028F5D1304615B0F0BD00244E
:10C6C00000940121F34A029400E004436D1C2B788E
:10C6D0000846203B98401042F7D128782A280ED0EF
:10C6E000022128780246303A092A15D8009A0A23EE
:10C6F0005A43303A80180C436D1C0090F1E701CF8B
:10C700000090002805DA01204003044300984042CD
:10C710000090022004436D1C28782E2815D1042097
:10C72000044368786D1C2A280AD101CF6D1C029041
:10C730000BE002990A225143303940186D1C0290D7
:10C740002878014630390929F3D928786C2810D087
:10C7500006DC4C281AD068280ED06A2817D104E0CD
:10C76000742813D07A2812D110E001204005044328
:10C770000CE00121090501E0032109050C4369785A
:10C78000814203D10120000524186D1C6D1C2878FE
:10C7900003906E281ED00CDC632831D004DC002806
:10C7A0008AD0582811D1B2E064287BD069280CD1F6
:10C7B00078E073282DD004DC6F2870D0702804D165
:10C7C000A7E075286CD078286BD0149A13999047FD
:10C7D000761C62E06002400F022807D003280AD0CE
:10C7E000042838680AD006603F1D56E03868F11703
:10C7F00006604160F8E738680680F5E70670F3E701
:10C800003878694608740020487404A80390012011
:10C8100003E0386803900020C0433F1D61070FD537
:10C82000002101E00199491C029A0191914213DA19
:10C830008142F7DB019A0399895C0029F2D10BE070
:10C84000002101E00199491C01918142FADB019A22
:10C850000399895C0029F5D101990098139A401A2F
:10C8600000902146149B00F03BF90199801946186D
:10C8700007E0039803990078491C0391149A1399CF
:10C8800090470198401E0190401CF2D12146149B14
:10C89000139A009800F014F986196D1C09E741E01D
:10C8A00033E034E00A200021049005916002410F3A
:10C8B000022905D001CFC2179446032905D007E00D
:10C8C000FF1DFF08FF0003CF06E000B2C217944629
:10C8D000042902D140B2C1178C460022614694451A
:10C8E00006DA0A460021404291418C462D2102E0A1
:10C8F000210504D52B216A461176012103E0E107C9
:10C9000001D02021F7E7019154E00A200BE010202C
:10C9100009E0102004900021042004430820059120
:10C92000029003E008200021059104906002410F6D
:10C93000022905D001CF00229446032906D006E043
:10C94000FF1DFF08FF0003CF8C4603E080B20429DF
:10C9500000D1C0B20021019121072BD50399702984
:10C9600006D0049A1021059B4A401A4305D00EE0D8
:10C9700040216A461176012108E06146014306D054
:10C9800030216A4611760399517602210191049A69
:10C990000821059B4A401A430CD16146014301D14D
:10C9A000610707D530216A4611760121019102996C
:10C9B000491E02910399582904D037A103910FA968
:10C9C0000F910DE039A1F9E76146059B049AFFF745
:10C9D00026FC039B8C469B5C0F9A521E0F92137091
:10C9E00061460143F0D10F9807A9081A203003903F
:10C9F000600704D5012000048443029801E001206F
:10CA000002900399884201DD401A00E0002041189D
:10CA10000290019809180098401A0090E00306D48B
:10CA20002146149B139A009800F05AF886190020AA
:10CA3000049008E006A9085C149A1399904704989A
:10CA4000401C761C049001998842F3DBE0030CD56E
:10CA50002146149B139A009800F042F8861904E0CE
:10CA6000149A302013999047761C0299481E029020
:10CA70000029F5DC08E00F980F990078491C0F9108
:10CA8000149A13999047761C0399481E0390002925
:10CA9000F1DCFBE60928010030313233343536371A
:10CAA00038396162636465660000000030313233FA
:10CAB000343536373839414243444546000000009A
:10CAC000F8B5044600251E461746880404D405E040
:10CAD00039462020B0476D1C641EF9D52846F8BDA4
:10CAE000FFB50446002581B01E46C80301D5302796
:10CAF00000E02027880404D505E038460399B047B4
:10CB00006D1C641EF9D5284605B0F0BD08491A20F1
:10CB1000486008490120486007480168032209026B
:10CB2000090A920711430160044980200860704798
:10CB3000007500400073004004E400E000E100E004
:10CB400002490120086002490860704700750040F2
:10CB500000700040F7B584B00025168807461580A0
:10CB6000406B1446002813D003780598032E51D348
:10CB70000221017021881122491C89B2218042546E
:10CB80002188491C89B2218043542088401C208080
:10CB9000386B00281DD005462088059902461232C0
:10CBA000B24237D811220A5420881022401C80B289
:10CBB00020800A542088401C20800F202A5C238873
:10CBC000401ECA54228840B2521C22800028F5DA46
:10CBD0000025384620300290807B002806D033465E
:10CBE0002246059902F04AF9050014D10298407BCB
:10CBF000002806D032462146059800F08FFD05003A
:10CC000009D1B878002823D0059886462088001DD1
:10CC1000B04202D90C2007B0F0BD684679DF002889
:10CC2000F9D1218803207246505420881921401CD4
:10CC300080B22080115420887146401C80B2208030
:10CC400041186846008803F032FB21884018208094
:10CC5000F878002817D0218803230A46FB56C91C00
:10CC60000598B142D6D80221815421880122491C5D
:10CC700089B2218042542188491C89B221804354C1
:10CC80002088401C20807868002817D02188002345
:10CC9000C3560A46C91C0598B142BBD8022181542B
:10CCA00021880A22491C89B2218042542188491CCA
:10CCB00089B2218043542088401C20803889002874
:10CCC0000AD0009438460196062202210830059BBE
:10CCD00003F06BFB05009ED1388A00280AD000942F
:10CCE00038460196072203211030059B03F05DFBB7
:10CCF000050090D1388B00280AD000943846019660
:10CD0000152214211830059B03F04FFB050082D13A
:10CD1000386A002806D033462246059901F012F9F8
:10CD20000500D8D1786A002806D0334622460599F6
:10CD300002F042FA0500CED10298007B002807D00D
:10CD4000334622463846059902F0ACFF0500C2D1B1
:10CD50003878002807D0334622463846059902F035
:10CD60005FFA0500B7D1284655E710B50122022128
:10CD7000002000F059FE002801D0072812D1072218
:10CD80000221012000F050FE002801D0072809D11F
:10CD900000210A22084600F047FE002801D007289B
:10CDA00000D1002010BD00000A4902680A604068F6
:10CDB00000228A60CA600A614A614860087AFD23DD
:10CDC0004008400018400872A020088228204882AD
:10CDD0008A827047902D0020F0B501888FB01B2902
:10CDE0002BD10546807B0F35C70805A802300024EB
:10CDF00004902E5D641CE4B2285D012802D0FF2857
:10CE000009D00FE0022E18D1281941780498A41CEB
:10CE10000172E4B206E028193146049A01F078F96B
:10CE2000A019C4B2BC42E4D3054900200968002916
:10CE300003D06A46107505A888470FB0F0BD000002
:10CE4000902D002070470000054886DF002805D09F
:10CE5000034908394968002900D008477047000095
:10CE6000982D0020BFF34F8F04490348C860BFF3DB
:10CE70004F8F00BFFDE700000400FA0500ED00E061
:10CE8000014B1B68184700005830002010B582681D
:10CE9000C368934203D001F0CDFD002010BD0520F2
:10CEA00010BD002906D0002A02D0531E134203D021
:10CEB000092070470E207047016083800021816047
:10CEC000C1600846704710B58268C3689A1A8388A3
:10CED0009A4203D801F0B8FD002010BD042010BD17
:10CEE00038B50C46A2680C235A43064B09789D5866
:10CEF000054A126A00920246204608302369A84774
:10CF000038BD0000C83100208828002010B506492F
:10CF100014230A785A435118091DFFF7E1FF042032
:10CF200002F008FF10BD0000FC300020094B9B6898
:10CF3000002B07D0002A07D0002805D00068037C0A
:10CF4000002B03D0082070470720704741744261CE
:10CF500000207047AC280020FFB59007002581B065
:10CF600014460E46002832D11B4F002C31D002F05F
:10CF700043FE049878610320387033461821224616
:10CF800000204B43BC601834C10089180D704D70EF
:10CF90008E704C601C19401C0328F5DBFD607D7011
:10CFA00001240E48BD702405046003211420FFF7FE
:10CFB00053FA0B4804600B4C0198A0600321112028
:10CFC000FFF74AFA60683861002005B0F0BD07201D
:10CFD000FBE7BD60FBE70000AC28002080E200E03A
:10CFE00000E100E000150140FEB50D461B49174663
:10CFF0008968044600292AD0002C28D0052D01D2AA
:10D000000720FEBD6069002821D0607C012820D067
:10D01000002603F08DF9C00010490190896840187E
:10D02000694603F0AFF9002815D0012101700C49C1
:10D03000446049680830E2C008490198896841188D
:10D0400068460078487003F017F80020FEBD0820FD
:10D05000FEBD2E46DDE70420FEBD0000AC2800200A
:10D0600000150140F8B5134D0446A96800291CD0ED
:10D07000002C1AD06069002817D00026267403F00F
:10D0800057F9C700A8686946381803F07BF90028EB
:10D090000DD0022101704460A868391868460078F4
:10D0A000487002F0E9FF3046F8BD0820F8BD0420C2
:10D0B000F8BD0000AC28002010B50446094881687E
:10D0C000C2688088511A814207D10121064802F0C6
:10D0D00093F9002801D0052010BD21460148FFF733
:10D0E000D5FE10BD7C3000208228002070B504469B
:10D0F000224888B01E460D0042601CD0A8882968CE
:10D1000082B21F48FFF7CDFE002815D1A889A96873
:10D1100082B21B481030FFF7C4FE00280CD1202239
:10D1200018496846FFF73CF8A06806902079002867
:10D1300004D0012103E0072008B070BD002168463B
:10D14000017506776079002800D00E206946487581
:10D15000E0780290A07803902078019060780090A9
:10D160000949684602F0F0F80028E5D102F09EF97E
:10D1700002480121801C02F03FF9DDE780280020F1
:10D180007C300020140502000102020010B50446A4
:10D19000064801214470401C02F094F9112803D183
:10D1A00021460348FFF78FFE10BD000080280020B5
:10D1B0008C30002070B504468089592828D11FA0E2
:10D1C000FFF73EFAA1892CA0FFF73AFA208C010A5A
:10D1D00000020143608C89B2020A0002024395B248
:10D1E0002BA0FFF72DFA29462CA0FFF729FAA08CD7
:10D1F00041B22DA0FFF724FA00256019C17B2DA0B4
:10D20000FFF71EFA6D1C102DF7D32CA0FFF718FAAC
:10D21000208C2B4988420FD1608C2A4988420BD13F
:10D22000A089592808D1102000F022FC002803D042
:10D2300000221146FFF716FE70BD00002A2A2A2A96
:10D240002A2A2A2A2A2A2A2A2A2A2A2A2A2A2A2A3E
:10D250002A2A2A2A2A2A2A2A2A2A2A2A2A2A2A2A2E
:10D260002A2A2A2A2A2A2A2A2A2A2A2A2A2A2A2A1E
:10D270002A2A2A2A0000000041707020636F6D7016
:10D28000616E792069643A2025780D0A000000005B
:10D290004D616A6F723A2025640D0A004D696E6F08
:10D2A000723A2025640D0A00525353493A202564EE
:10D2B0000A00000025303258000000000A0A000071
:10D2C000341200007856000010B500221146FFF716
:10D2D000C9FD10BDF0B50C4693B01F216A46118000
:10D2E000072600279180002809D0C17849070DD56D
:10D2F00002A9FFF72FFC002809D102AD01E00025AB
:10D300001780002C0ED0E078002802D0304613B0F1
:10D31000F0BD01AA0AA92046FFF71CFC0028F6D19F
:10D320000AAA02E068460022878068468088C3B265
:10D3300068460088C1B2284672DFE8E710B5028867
:10D340001C4C102A17D00021112A1AD0192A11D1E9
:10D35000807900280ED1607901281ED0022822D0C1
:10D36000032822D0042805D12171E2680846002A4A
:10D3700000D0904710BD017D0129FBD1808820811C
:10D3800010BD6170808821898842F9D1012005E0B3
:10D3900021690029F4D0884710BD022000F02CF844
:10D3A0000028F5D110BD0320F8E7032020710420E8
:10D3B000F4E700003428002010B5022801D003282B
:10D3C0000ED1084C207800280AD000202070607907
:10D3D00000F012F8002803D02169002900D0884706
:10D3E00010BD00003428002010B507210148FEF7C9
:10D3F000FEFE10BD4C280020F0B5754C87B0607162
:10D40000002606A8069602F0C1F90127082806D0D2
:10D4100000286FD10698002802D02770D4E0069625
:10D42000FFF7E2FF6B4D6878002802D06079012891
:10D4300005D0A87800280AD06079022807D1E168D1
:10D44000002903D0E7700820884700E0E670607983
:10D45000012808D16878002809D05D48193002F009
:10D460006DF9002803D06079022802D00CE0022078
:10D470006071A878002805D05548193002F05EF98F
:10D48000002801D103206071287B002804D1607935
:10D49000032801D104206071287E002804D160791E
:10D4A000042801D166712671E16800290AD06079EB
:10D4B000032801D0042805D12878002802D06078FC
:10D4C000002818D0A67018216846FEF790FE68461E
:10D4D0000670019606720396607901280FD0022823
:10D4E00016D03C4E243637465C3F03281CD0042817
:10D4F0005ED13BE069E0A77007208847E3E7344846
:10D50000183001906846077046820682277152E003
:10D510002F48183001906846077029894182A988F0
:10D5200001820220207146E0A88A69464882288A42
:10D5300008822848243002F0A7FF002805D0287868
:10D54000002802D06078002801D003202FE00220BC
:10D550006946087204200396F8701E480021383886
:10D56000FFF7B8FE002830D1052020E0A88B6946DF
:10D570000882288C48821748243002F085FF002852
:10D5800005D02878002802D06078002801D0042037
:10D590000DE002206946087204200396F8700D48D9
:10D5A00000213838FFF796FE00280ED106202071A2
:10D5B0006079002803D0684673DF002805D1E16850
:10D5C000002901D020798847002007B0F0BD000075
:10D5D000342800204C2E002038B5002824D0002903
:10D5E00022D00A88102A1AD0112A1AD0502A1BD108
:10D5F000027D002A18D0CA884389891D9A4213D116
:10D600000A8B022A10D10268002A0DD0CB7E8C7EB4
:10D6100019022143C907C90F07D0002106E08988F4
:10D6200001E00021C943418238BD01216B461970D8
:10D630006946904738BD000070B5054601461C227A
:10D640000E48FEF7ADFD0E4C002626702968002915
:10D6500006D00822201DFEF7A3FD201D7ADF02E080
:10D660000748001D7BDF002807D1401E60806670E0
:10D67000044A00210448FFF759FC70BD382F0020F0
:10D6800054280020CD020200E0040200F8B5214C2D
:10D69000028800271E4DE689102A15D01E49112A3E
:10D6A00021D0122A2DD0502A1CD1C288801DB2420E
:10D6B00018D1028B022A15D1C27E837E1002184334
:10D6C000C007C00F0CD112E0818869800146104864
:10D6D000082216310C30FEF763FD6F70002E01D169
:10D6E00000F07AFCF8BD0020C04368806F700868C5
:10D6F000FFF7B8FC0028F5D0A1690029F2D08847CF
:10D70000F8BD811D024808220C30FEF749FDE7E70D
:10D7100054280020382F0020E00402007CB5054684
:10D7200008880C460930904201D90C207CBD68461F
:10D7300071DF0028FAD121880820685420881B2135
:10D74000401C80B220802954208800A9401C80B24F
:10D750002080401906220131FEF722FD208869460B
:10D76000801D80B220800978002900D00121295431
:10D770002088401C208000207CBD000010B504469D
:10D78000FFF72AFB204600F0EDFD21460A4800F095
:10D7900015F8094821461838FFF71EFF2046FFF705
:10D7A00075FF204600F0B4F8204601F01FFF204628
:10D7B000FFF7C4FD10BD0000402D002038B50A88D9
:10D7C000102A17D0112A17D0502A18D1CA88838955
:10D7D000891D9A4213D10A8B022A10D10268002AAD
:10D7E0000DD0CB7E8C7E19022143C907C90F07D00B
:10D7F000002106E0898801E00021C943018438BD89
:10D8000001216B4619706946904738BD07B584B051
:10D8100000280DD0828A114B9A420BD0827D002ABB
:10D8200008D06A46128B142A06D9072007B000BD1B
:10D830000E20FBE70820F9E70022009201920292F5
:10D84000039282896B461A80039106A902910121F5
:10D850009970808A6946A6DFE8E70000FFFF0000B4
:10D860001CB5002348221549082002F097FA002829
:10D8700003D000221146FFF7F5FA00200090694618
:10D8800001900870684660DF002803D0002211462E
:10D89000FFF7E8FA0A4802F077FA002803D00022DE
:10D8A0001146FFF7DFFA074802F090FA002803D08C
:10D8B00000221146FFF7D6FA1CBD0000B02A002056
:10D8C0007DD70100C1FF01001CB5044681786A467E
:10D8D0000C4801F06FFF002812D160781C214843EA
:10D8E00009491C2340181A46694602F01DF80648EB
:10D8F00006494030807A80000A58214668469047A1
:10D900001CBD00007828002018300020F40402001C
:10D9100010B51C4C0188606810290DD011290AD15E
:10D92000401E606007D1FFF720FA002803D021686D
:10D93000002900D0884710BD00281ED100210122F7
:10D94000084600F071F8002801D0072811D10722FD
:10D950000221012000F068F8002801D0072808D132
:10D9600004220221002000F05FF8002805D00728DB
:10D9700003D02168002900D088476068401C60609F
:10D9800010BD00002C280020F8B5074600242348CD
:10D9900002E0641C042C1AD2A2008258BA42F8D1C8
:10D9A000042C14D21D481E4E0C38002929D0012900
:10D9B0000ED002290BD16000201880194578002D67
:10D9C00005D018480169002901D028468847F8BDCC
:10D9D00061006118755C8E19717800290CD01149AD
:10D9E0000A224968806851430E4A521CFFF7FCFA2C
:10D9F000002801D10B4847700A48B178143001550E
:10DA0000DDE78068FFF72EFB0648610061181430DF
:10DA10008919005D8D78A842D1D0F8BDB00402000C
:10DA2000E82D00201428002070B50023042811D20E
:10DA3000440004190D4D012A02D101290DD0002204
:10DA400046008019094E801900290CD0012906D002
:10DA5000022906D00723184670BD0D30C2B22A55E0
:10DA6000F9E74270F7E78270F5E70000E82D002043
:10DA700010B5054A0146127A0020D20702D00846A6
:10DA800000F004F810BD000014280020FEB57A4D07
:10DA90000722EB68D2049A4302936B6800939C00C0
:10DAA00006461B1900200121019389040746734C87
:10DAB0003300FEF7D5FD180D1515374755677C88DF
:10DAC0007F8891DE9E9E9E9E9EC8CED1D8DEDE14BB
:10DAD0000F21029A89049143A160E7602F70FEBD77
:10DAE000A260E76060680F2292045040400309D5AD
:10DAF000A160E760022E02D1E120C0000AE07D2093
:10DB0000400107E0E160A760022E01D1C82001E0DA
:10DB1000FF2091302E706421FEF718FB00994143DD
:10DB200000223FE0A260E76060680F22920450404C
:10DB3000400304D5A160E76019204001EAE7E160F5
:10DB4000A760E3E7A260E76060680F22920450409C
:10DB5000400302D5A160E760D1E7E160A760D7E7A5
:10DB6000A260E76060680F2292045040400302D533
:10DB7000A160E76001E0E160A7602E7000984100BD
:10DB800000220FE0A260E76060680F22920450401C
:10DB9000400302D5A160E76001E0E160A7602E705C
:10DBA0000099002236480068FFF71EFAFEBDA26009
:10DBB000E7601BE061680120C00402468A43A2605E
:10DBC0000140E16010E060680121C9040A46824317
:10DBD000A2600840E060E3E760680121C9040A46EA
:10DBE0008243A2600840E0600199C9E7E160A76054
:10DBF0002DE023484068FFF735FA11218A1B01D038
:10DC0000002807D00F22E96892041140A160E76064
:10DC1000EF60FEBD01210905E960012A0CD910461B
:10DC2000C82148436421FEF791FA69680022414304
:10DC300013484068FFF7D8F90F22E96892041140B1
:10DC4000E160A760FEBD0F218904A160E7602E702E
:10DC5000FEBD0722D204AAE70D218904A160E76076
:10DC60000121C904C2E703210905A160E760891009
:10DC7000BCE70F218904B9E71428002000050050F3
:10DC8000A404020002490918202008567047000029
:10DC90009C300020F8B53E481422017851430C18FE
:10DCA000E0680C2148433A492769CC31401805897E
:10DCB00041890091241D466801F00AFE014638465C
:10DCC000FEF744FA002932D000200099A2884D4383
:10DCD0006188AE198918CD1900222E4900280A61E1
:10DCE00009D001F0F5FD6188884222D0B54202D109
:10DCF000A08800281DD0A06802281AD001F0E8FDF5
:10DD0000A188CA1901461046FEF720FA214C88085E
:10DD1000E06001F0DDFD01462846FEF717FA002914
:10DD200011D00020B5422FD000280ED02CE00120C9
:10DD3000CBE701F0CDFD01463846FEF707FA15495D
:10DD40004861032021E00120ECE7ADB2B7B201F059
:10DD5000BFFD01463846FEF7F9F9064601F0B8FD69
:10DD600001462846FEF7F2F9864201D1781B09E008
:10DD700001F0AEFD064601F0ABFD01462846FEF778
:10DD8000E5F9701A80082061022001F0D3FFF8BD88
:10DD9000FC3000208828002010B5074814220178A4
:10DDA000514308180079042802D000F059F810BD3A
:10DDB000012001F0BFFF10BDFC30002010B50B4862
:10DDC0001422017851430818094AC1881162007968
:10DDD000012806D0032801D0042801D1FFF75AFFFB
:10DDE00010BD012001F0A6FF10BD0000FC30002096
:10DDF0008828002014225043054A00218018017110
:10DE0000C18001220161C26041610181704700004F
:10DE1000FC300020F8B5104C069E65780A2D19D00C
:10DE200027787D190A2D00D30A3D14277D432D192B
:10DE300028716A6103C92961E860EB802E816078EE
:10DE4000401C607005480078002801D1FFF7B6FF3C
:10DE50000020F8BD0420F8BDFC30002088280020F8
:10DE600010B50D4C14212078484301190020091DDC
:10DE7000FFF736F82078FFF7BDFF6078401E60702E
:10DE80002078401CC0B220700A2801D100202070E8
:10DE9000002001F04FFF10BDFC300020F8B52348F2
:10DEA000C16800293ED00E6821494C680769C078D6
:10DEB000E11B0D022D0AED1C002814D101201D4A82
:10DEC000000450601B4A403A50601B494000086003
:10DED0001A4908601A49012008602F20FEF70AF944
:10DEE00012490120C870B54200D23546E819000237
:10DEF0000F4B000A403318600D4A5168001B091B84
:10DF00000902090A0002000AC91C814209D95068A5
:10DF100018602F20FEF7EEF80120074940048039F1
:10DF20000860F8BD01F068FEF8BD0000AC280020D4
:10DF3000001501404013014080E200E000E100E0F4
:10DF400000100140F8B50646108814468446801D2E
:10DF50000D46984201D90C20F8BD32880720062AC8
:10DF6000FAD31927FF01184BBA4201D99A42F3D1CB
:10DF700071880629F0D3B94201D99942ECD19A426D
:10DF800003D0994201D08A42E6D80521604629543F
:10DF900020881221401C80B2208029542088401CF7
:10DFA00080B220804119308802F081F92188401820
:10DFB00080B220804119708802F079F921884018D8
:10DFC00020800020F8BD0000FFFF000010B50022F7
:10DFD0001146FEF747FF10BDF8B5164800F0F4FEF5
:10DFE000144D00260C3D144C002807D0616900290F
:10DFF0001CD001206A461070684616E02878002878
:10E0000005D06169002911D0684606700DE0687876
:10E0100000280DD0A168094800220068FEF7E4FF3F
:10E02000002803D0A169002900D088472E70F8BDD0
:10E030006168F0E760280020382F0020E00402002B
:10E0400070B5094B04469E7A082000250E4207D081
:10E050000648844202D01889A04202D100201560EF
:10E0600070BD052070BD00004C300020FFFF000097
:10E070000C214843064910B5012240188272911EB6
:10E080000181FF21C1720721FEF7B1F810BD000028
:10E090004C30002010B5134C207900071FD4606964
:10E0A000401C6061E068002801D0042004E000F01A
:10E0B000BDFE002803D0022001F078FF10BD2069CA
:10E0C000002809D06068C10701D00320F4E70121CE
:10E0D000084360600020EFE7FFF75EFE10BD01F02F
:10E0E00059FF10BD8828002010B5084841680A076C
:10E0F00008D48A0702D5012211434160022001F0B1
:10E1000055FF10BD01F046FF10BD0000882800201B
:10E1100070B504461546401C02F0C4F86881E078EA
:10E120002873217928460D30152907D01021FEF7D4
:10E130005EF80020E8832884688470BD611D102289
:10E14000FEF72EF82046153002F0ACF8E8832046A2
:10E15000173002F0A7F828842046193002F0A2F800
:10E16000EAE70000FEB50E46044681786A46234879
:10E1700001F020FB002827D160780C21204F484374
:10E18000C019807A400620D4022E1ED0012E1ED047
:10E190001C4DA0781C21484319490023F839411827
:10E1A0001C226846A847002813D0022E0CD02078E5
:10E1B0000C21484312490C314018807A12498000E2
:10E1C0000A58214668469047FEBD104DE1E7104DC4
:10E1D000DFE7022EF8D060780C214843C019817A1D
:10E1E000BF221140817260781C21484304493439B0
:10E1F00041181C231A466846A847D8E7782800200B
:10E200004C30002019FF0100E404020069FB01000A
:10E210008DFA010070B50546114A124800241C23EE
:10E2200063431B189B7EFF2B04D0641C072CF6D382
:10E23000104670BD0A78022A09D01C2262431018C9
:10E24000FD22827607221030FDF7AAFF04E01C2190
:10E2500061430818FE2181762C700022E8E7000057
:10E2600043800000542F0020F7B505250F4F0646C8
:10E270000024002E0AD01C206043C019072231461A
:10E280001030FDF7BFFF002807D00AE01C206043D4
:10E29000C019018B0298814203D1019800250460C6
:10E2A00002E0641C072CE4D32846FEBD542F002056
:10E2B0007CB5054681B26A46074801F07BFA040046
:10E2C00008D15421684601F09FFA040002D1284683
:10E2D00001F040FA20467CBD7828002010B51000DF
:10E2E00003D000221146FEF7BDFD002010BD000046
:10E2F0001FB56946087301F0F1FA002803D0002227
:10E300001146FEF7AFFD03A800F026FA002803D05F
:10E3100000221146FEF7A6FD01A805210130FDF7F8
:10E3200066FF6946487901221043E1210840DF2158
:10E330000C30084069464871072088711020C87168
:10E34000064800900A71064800F01AFB002803D026
:10E3500000221146FEF786FD1FBD0000DDE2010030
:10E3600001280020F0B5054693B000200290FF245C
:10E37000ED480E94007800284BD0EC4F3868002808
:10E3800047D001A800F0DAF9002803D00022114696
:10E39000FEF768FD281D05902A2069460883FF20A6
:10E3A000002688710E710396E04C28880C3C1028DA
:10E3B0000ED0A88803AA0221FFF742FE002807D149
:10E3C00003980C2141430919CA7A69468A71487138
:10E3D0002888132217287CD00FDC10281BD0112886
:10E3E00053D0132876D0142813D103980C21484316
:10E3F0000019C07AFF2871D08DE0CD4918286BD064
:10E400001C286AD0522804D1B87A8000095801A883
:10E41000884713B0F0BDC74F03AA01213846FFF764
:10E420000FFE0028F5D103990C2048430222001961
:10E43000827211236A4613745171A98801810722DF
:10E44000A91DFDF7ADFE687DC10707D04108B6489C
:10E450000830405CFF2808D00E9006E03A460EA92E
:10E46000A81DFFF701FF00280ED103990C2251438C
:10E4700009190E98C8728A7A08231A438A72694663
:10E48000887101A8FFF720FA39E103980C2148436D
:10E490000119887AFD2210408872010706D5C0094B
:10E4A0000DD0002101A8FFF75DFE08E068468079E5
:10E4B000FF2804D001F04EF9FF20694688710398C7
:10E4C0000C225043102100198172122069460874F1
:10E4D00015E17FE030E001E0D5E00EE1EA890EA928
:10E4E0000020FFF7C1FE00280ED103980C225043F4
:10E4F00000190E99C172837A082213438372684609
:10E50000817101A8FFF7E0F903980C214843001935
:10E51000C07AFF2806D003981C214843834940391C
:10E520004018029003981C21484383494218A88848
:10E530000023029982DF6CE768460274039B0C207B
:10E5400058430119887A042210438872C87AFF2838
:10E5500030D01620694608741820434373480E21B2
:10E56000243818180830FDF742FE03980C21484360
:10E570000019817A40221143817203990C220020F4
:10E580004A430A901219D27A1C235A436A4B0C90C0
:10E59000D2180B921C2251431A46C4328918079193
:10E5A000089009903A1DA88807AB00217FDF00285A
:10E5B000C1D1A4E00EA8FFF72DFE002801D0064629
:10E5C000DBE769460E98887103990C2251430919BB
:10E5D000C872D2E7787A400840007872039A0C201B
:10E5E0009446424311198B7AFB2003408B7214200E
:10E5F0006F463874A879002804D0C87AFFF758FE0F
:10E60000AE797CE0E879400779D5B879FF2876D0F3
:10E6100008273B438B72EB7A9B0708D51C250346E2
:10E620006B43454D5B199D7E6D086D009D76CB7AE1
:10E63000FF2B64D0A25C022A10D01C2250433E4D16
:10E64000072240191030FDF7ABFD684680791C2188
:10E6500048434019817EFD2211400EE061461C2294
:10E660005143324A403A89184A8A1C214843324968
:10E6700040180283817E490849008176012101A862
:10E68000FFF770FD3BE0A8790209012A23D10007BA
:10E69000000F01281FD103980C2242431219927ACD
:10E6A000120718D5182148432049243940180E2153
:10E6B0000830FDF79CFD16206946087403980C216C
:10E6C00048430119887A602210438872787A0221BF
:10E6D000084378720FE003980C2250430019827AA5
:10E6E00080231A43827215206A461074B87A80001B
:10E6F000095801A88847002601E06846027432469E
:10E7000004A901A8FEF7BCFB6846007C122800D0D3
:10E710007FE603980C2141430919897A0129F7D032
:10E72000FFF7A6FC75E6000068280020583000209E
:10E7300004050200FFFF0000542F0020002806D02F
:10E74000FF21017041708170C17000207047014845
:10E75000704700000E800000F0B585B0040036D090
:10E76000294800250560457285722846FFF780FC20
:10E77000254818212438FDF73AFD0026FF273046AA
:10E7800000F0E8FF21488755761C072EF7D3542167
:10E79000684681800721C1801D481C4900900831CE
:10E7A000684601F015F900280FD1184E0120083EE7
:10E7B0003070207800280CD069468888C988484382
:10E7C00081B23046103001F01FF805B0F0BD11489D
:10E7D000FBE7114F00240D48A1B202AA083000F057
:10E7E000E9FF002809D11C206043C01900231C2226
:10E7F00002A901F099F8002801D03570E5E7641C02
:10E80000072CE8D3E1E700005830002070280020F2
:10E810001DE801000E800000542F0020FFB5554870
:10E820008FB00068189F1E46002851D0542F4FD833
:10E830006846FFF783FF002803D000221146FEF749
:10E8400011FB00246846047004712546059706965E
:10E85000A9B20DAA484800F0ADFF002806D1082251
:10E860000DA90F98FDF7CEFC002819D06D1C072DBF
:10E87000EED3684680780790FF2829D0109820258D
:10E88000032810D03D481C21301AFDF75FFC0127FA
:10E8900007282DD204A80290119800281AD021E050
:10E8A00068468570E5E7542F03D04020694608711B
:10E8B00001E0684605716946087903210843694605
:10E8C000087104A8029001A96846119AFEF7D8FAC7
:10E8D00013B0F0BD07993846884027491039496878
:10E8E0000842F5D0079801F0E7FC6846057138E06A
:10E8F00020481C214038301AFDF728FC00280BD096
:10E900001C4D1821243D701BFDF720FC00281AD057
:10E91000402069460871DBE704A80290684605714B
:10E92000447014480A940C300B904C380790684699
:10E9300080781C21484311494018089007A8069088
:10E94000182005900DE03021684601714470C770B1
:10E9500008480C38807A800703D428461821FDF730
:10E9600046FC109869460228087901D00221A5E7E3
:10E970003843A5E75830002078280020542F002085
:10E9800070B5064618480D46007800280ED0174985
:10E99000002E0ED0002D0CD02868002809D0144C71
:10E9A0002168002907D011480A3870BD0F48801F20
:10E9B00070BD084670BD20600522691D201DFDF751
:10E9C000EFFB2879A072207A02214008400008431A
:10E9D000FB2210402072E0790123184308431040C5
:10E9E000E0710020307070BD682800200E800000AB
:10E9F0005830002010B50E4900234A788C78A24286
:10EA000012D0521CD2B24A70022A00D14B704A78FE
:10EA1000074B920018339A580260086910180002D8
:10EA2000000A0861012010BD0360002010BD000035
:10EA3000AC280020826883881A4003689A5C0A70B8
:10EA40008168491C81607047C26883881A400368E6
:10EA50009954C168491CC1607047000010B5002876
:10EA600003D0112802D0FEF751FA10BD0248082247
:10EA700041681143416010BD8828002010B51C4C2E
:10EA8000217820464068012906D0022929D003298F
:10EA900012D1000717D513E0000711D4154814222E
:10EAA000017851430818C188A28B891A0904090CFE
:10EAB000C18002D001F032FA10BDFFF7D1F910BDCC
:10EAC00000F06EFB10BD6069401C606100F0AEF9A3
:10EAD000002803D0207801F02DF910BDFFF75CF974
:10EAE00010BD6078044980000858804710BD0000C0
:10EAF00088280020FC3000206805020010B528DFBF
:10EB0000FFF7ACFF10BD10B529DFFFF7A7FF10BD61
:10EB100010B50446C0B2FEF739FB204610BD0020F8
:10EB2000704700207047002070470000F8B5064687
:10EB30004078182104464C4324490C225043611864
:10EB4000224A00254B6818328018AE462F469C4654
:10EB5000002B0CD0827A1346D20908D05A0606D46C
:10EB60000D461A4A614689B2175908358E46174C28
:10EB7000008918343B4672462946A9DF0B2819D074
:10EB8000002800D01248012F13D170780C2148437F
:10EB9000001900890F4AA7DF00280AD00E498842D1
:10EBA00012D0082810D0891C88420DD011280BD013
:10EBB0000020F8BD70780C2148430123001900891A
:10EBC00072462946A9DFE0E70148F8BD343000204D
:10EBD00041800000FFFF00000230000070B50C46CD
:10EBE000014660781822084D50434019382300F040
:10EBF0009BFE002807D161781822514349194A68C1
:10EC0000521C00D14A6070BD34300020F3B585B08D
:10EC10000D460E206946088268780C210327484378
:10EC2000224E3B468019008904AA6946AADF0028C3
:10EC300038D1687818214843741A001969460A8A3D
:10EC40000830FDF7DFFA0028687807D0182148431C
:10EC50000119496800290DD0154E0CE00C214143E3
:10EC60008919897A89071DD4182148430019FDF7AD
:10EC7000BEFA17E00F4E27506846028A68781821BE
:10EC800048430019426068784843001969460830D3
:10EC9000FDF786FA687818214843011938231822AD
:10ECA0000598B047002007B0F0BD00004C300020B0
:10ECB00069FB01008DFA010010B5FFF737FF10BDA9
:10ECC00010B5FFF78BFF10BD10B5FFF79FFF10BD0C
:10ECD00070B51B4C207900072ED41A4814220178F5
:10ECE00051430D182E6900F0F3FD0146E8882A898A
:10ECF000761E80188019FDF729FA21690025002960
:10ED000009D06169814206D1E5606068012108434C
:10ED1000606000200AE000F089F8002802D002209C
:10ED2000E56003E02069002803D0032001F03EF9EC
:10ED300070BDFFF731F870BD01F02CF970BD000017
:10ED400088280020FC300020F8B51E4C20780028D0
:10ED500037D02069002807D00026E068002805D0B9
:10ED60000025002E04D013E00126F6E70125F8E780
:10ED7000684651DF052806D0002806D0002211463B
:10ED8000FEF770F804E0012602E021690098884748
:10ED9000002D12D1608869460880A06861DF0528CF
:10EDA00006D0002806D000221146FEF75BF804E0EA
:10EDB000012502E0E168A0688847002ED8D0002D28
:10EDC000CFD0F8BDD0280020418805480288914264
:10EDD00004D34088814201D8012070470020704749
:10EDE000582800201048018CC9B2012917D1818C04
:10EDF000090714D1018D09060A0F03D1828D12066D
:10EE0000120F0ED0090F012903D1828D1206120FA5
:10EE100007D0032903D1808D0006000F01D0002008
:10EE20007047012070470000C00F00F070B50E4819
:10EE30001422017851430C18256900F049FD014660
:10EE4000E08822896D1E80184019FDF77FF9074977
:10EE50004A69824206D3824202D10869002801D061
:10EE6000002070BD012070BDFC30002088280020EB
:10EE7000800701D0002070470120704730B5158809
:10EE8000EC1C9C4201D90C2030BD02244C55138847
:10EE90001C255B1C9BB21380CD5413885B1C9BB25A
:10EEA0001380012807D0022807D0032807D00428A0
:10EEB00007D0072030BD002004E0012002E0CC5440
:10EEC00001E00320C8541088401C1080002030BD91
:10EED000F8B52C49C8680A690C780F7989688646A4
:10EEE000944600913EE00099E20055182A7836E0F9
:10EEF000182353436968521CC918AB78D2B29342A5
:10EF000000D100220B78022B02D0032B27D123E063
:10EF10004E680346014603E0B14204D00B46C9697E
:10EF200000291CD0F8E7002919D08B4208D1C0690C
:10EF3000002805D1144F0126BE600026B4460127E3
:10EF40000E68C969D961002909D00B689B190B604B
:10EF500005E00174C06900E000210028F9D169785A
:10EF60009142C5D12146641EE4B20029BBD10549B6
:10EF700062460A61C8600F71704501D00120F8BD7A
:10EF80000020F8BDAC28002000100140F8B5044670
:10EF900031480026C168009107784EE02E48F900FC
:10EFA00080680D1843E0002C02D02046E4691FE081
:10EFB0002878182141436A68401CC0B25118287053
:10EFC000AA78904200D12E700A784868012A30D180
:10EFD000027C002A2DD18A684260CA6882600A6970
:10EFE000C260496981611C490979002900D04660E5
:10EFF000194943680A699C46991A0902174B090A7C
:10F00000994202D28268891807E06146511A0902C2
:10F010008268090A8A4202D9511A016000E006603A
:10F020004660012186600174C66101F02DF8002C54
:10F03000B9D1287869788842BAD138467F1EFFB2A4
:10F040000028ABD10448C1680098814201D001205A
:10F05000F8BD0020F8BD0000AC280020FFFF7F00B5
:10F06000002388B03B4A05211846FDF775FF0028AC
:10F0700003D000221146FDF7F5FE374A04AB07CA5C
:10F0800007C3FF21013135480090401801910391D9
:10F0900002900323324A694604A8FEF727F80028A5
:10F0A00003D000221146FDF7DDFEFEF7D9FB204616
:10F0B000FFF71EF91C216846FDF799F80520C003EB
:10F0C00001900F200004002502900095032168465E
:10F0D0000173244881896846C181057422480590DE
:10F0E000224806906846FEF7A7FA002803D00022BF
:10F0F0001146FDF7B7FE1EA0FDF7A2FA21482049F0
:10F10000016021494160FDF74FFEFDF7FFFC1FA0A4
:10F11000FDF796FAFDF798FE0320FEF76DF900283B
:10F1200003D000221146FDF79DFE164C0C3C48DF33
:10F13000002803D000221146FDF794FEA068401C71
:10F14000A060642802DDA560FDF7FAFC0A2000F04B
:10F15000BDF8ECE7E8280020980402000C2B002002
:10F1600099010200402D002019F70100CDDF0100B8
:10F170005363616E6E657220696E69740A000000E7
:10F18000B5D101000C280020C9D20100537461726E
:10F1900074696E6720657865637574696F6E0000C9
:10F1A00010B504480822416891434160007800F09E
:10F1B000C1FD10BD8828002070B5144682880E4617
:10F1C00005462088111D4118921C994201D8FE2A3B
:10F1D00001D90C2070BD521C32542088FF21401CE4
:10F1E00080B2208031542088401C80B22080811958
:10F1F000288801F05CF82188401880B22080AA8815
:10F20000002A09D0A968002908D08019FCF7C8FF96
:10F210002088A98840182080002070BD072070BD7C
:10F22000F8B50F46017814460546012902D16878E1
:10F23000002806D02088821C9A422DD8012902D0AD
:10F2400006E00720F8BD69784118891C994223D847
:10F25000181A801E86B2684606802188B81C0818D5
:10F2600069467DDF0028EDD12878022805D169465E
:10F270000988B14201D809210AE00821012805D1F5
:10F280006878B04202D86A46108001E0684606807D
:10F2900068460088FE2801D90C20F8BD2288401C51
:10F2A000B8542088401C80B2208039542088694698
:10F2B000401C20800988401820800020F8BD0020D4
:10F2C00070470020704700207047000031B5054CA2
:10F2D00004E0401E00902046FCF7FCFE0098002849
:10F2E000F7D138BDE70300008207D30EFF229A4012
:10F2F0008907090E10B5994000280BDA03071B0F88
:10F30000083B9C080C4BA400E318DC6994430C43B5
:10F31000DC6107E08408094BA400E41823689343E8
:10F320000B432360C106C90E0120884004490860D0
:10F330000449086010BD000000ED00E000E400E0BA
:10F3400080E200E000E100E0F3B50446244881B02B
:10F35000807D002801D00820FEBD002C00D1214C6A
:10F36000206800F010F92078012739461E4E8140B0
:10F37000B1600021606800F0FDF81C4DA069686272
:10F38000607D217D0843E86603CCE8606961207BED
:10F39000083C01280ED10021A06800F0EBF8E068DD
:10F3A00000F0F1F8207B39468140B160E168A06847
:10F3B000A96028610A4E02987060216931600028B6
:10F3C00006D00C4A217F0A4850600220FFF78CFFCC
:10F3D000042028600020F074B074B7757075FEBD0D
:10F3E000E4300020340502000005005000250040F4
:10F3F0008000020000230040F8B5294DEA7C002A75
:10F4000001D01120F8BDE974E86000202875687DFE
:10F41000002801D100F038FC6868224C002805D093
:10F4200081202149800048600020F8BDFF2125315E
:10F43000204600F0CDF80546FF210931204600F0B6
:10F44000C7F80746FF214531204600F0C1F80646BF
:10F45000394631432943E9D02846304306D100F0EC
:10F46000EDFB0F48C17C007D8142DFD8FF21453193
:10F4700000206050FF21253160500949002DC874DB
:10F4800001D00320F8BD002E01D00F20F8BD497D2A
:10F490000120002901D02060C6E76060C4E70000B9
:10F4A000E4300020002000400023004010B5044C50
:10F4B000607D002803D100F0E7FB0120607510BDDE
:10F4C000E4300020F8B5204C0026A27C002A01D0B0
:10F4D0001120F8BDA174A060002020821B4DFF27E1
:10F4E0001D37E8510120A86000F030FE6168002956
:10F4F00011D024E0FF2701372946144800F068F8AE
:10F50000002802D1208AB842F6D1208AB84203D01E
:10F5100000F01CFE00E03D46A07C218A8842E9D82C
:10F52000218AC81FF9380CD0084F2946384600F008
:10F530004FF80028F9D00120F8600020A074304670
:10F54000F8BD0F26F9E70000E4300020002000405D
:10F5500030B552000A439900039C0A432102049DDE
:10F560000A4329040A43024980004018026030BD62
:10F57000000700501CB500220B4600921146019274
:10F58000FFF7E6FF1CBD1CB5002100910B460122D0
:10F5900001911146FFF7DCFF1CBD00008200064808
:10F5A0001018026803231B049A43026002680904CE
:10F5B0000A430260704700000007005003494018EA
:10F5C0000068012800D00020704700000060004063
:10F5D0004058002800D001207047032212028018F2
:10F5E0004068084000D00120704700001CB5044668
:10F5F000008810282BD0112839D019284DD01B286D
:10F6000024D10822A11D6846FCF7CAFD684680790E
:10F61000D7281BD168464079D72817D1684600798A
:10F620000E2813D16846C07800280FD1684680782C
:10F630008A280BD168464078512807D119A0FCF7D9
:10F64000FFFF0D2161561DA0FCF7FAFF1CBD1FA096
:10F65000FCF7F6FF0720FEF70BFA002803D0002284
:10F660001146FDF7FFFB1F49A08848801CBD1EA066
:10F67000FCF7E6FF0020FEF7FBF9002803D000228C
:10F680001146FDF7EFFB1120FEF7F2F90028EDD04F
:10F6900000221146FDF7E6FB1CBD1AA0FCF7D0FFC7
:10F6A0001CBD0000424C455F4741505F4556545FCA
:10F6B0004144565F5245504F52540A0052535349E9
:10F6C0002832293A2025640A00000000424C455F98
:10F6D0004741505F4556545F434F4E4E4543544556
:10F6E000440A000000280020424C455F4741505F1B
:10F6F0004556545F444953434F4E4E454354454449
:10F700000A000000424C455F4741505F4556545F38
:10F7100054494D454F55540010B50078002809D183
:10F7200005483B21408876DF002803D0002211469F
:10F73000FDF798FB10BD0000002800200021425C6E
:10F74000002A01D001207047491C0629F7D3002068
:10F750007047000070B505461C200B4968434418EB
:10F76000204611300621FCF742FD20461021FCF70F
:10F770003EFDFF2121740020A176C043208328464E
:10F7800000F09AFD70BD0000542F00200749097950
:10F79000490701D408207047002804D0044949785B
:10F7A0000160002070470E2070470000882800206C
:10F7B000FC30002030B5124B1B795B0701D40820C8
:10F7C00030BD002805D0002A03D00468002C10D1D9
:10F7D00001E00E2030BD0B4B1D68002D09D045689F
:10F7E0001889414369185D8945435868281888423B
:10F7F00001D8072030BD14600020516030BD0000EA
:10F8000088280020C8310020FEB5054625480E4650
:10F810000079400701D40820FEBD002D03D02868E0
:10F82000002834D101E00E20FEBD1F4C21680029C4
:10F830002DD06089218948436168411868688142F8
:10F8400025D9FFF715FB00280FD0686801902968BB
:10F850000C2251430F1979680091401A39890C46DE
:10F86000FCF774FC002912D101E01020FEBD2146F6
:10F870003046FCF76BFC002909D1002E07D07889AF
:10F8800044430198811900980019814201D9072049
:10F89000FEBD002002460090334629460320FEF7B5
:10F8A000B9FAFEBD88280020C831002010B50748ED
:10F8B0004469601C06D000F00BF801462046FCF7B6
:10F8C00045FC10BD01200007406910BD001000106C
:10F8D00001200007006980B27047000070B5002465
:10F8E0000F482546047044702846FEF783FA6D1CC5
:10F8F0000A2DF9D30B4D6C80FFF7D8FF861EFFF75A
:10F90000E7FF46430648AE60CC306C61046004817A
:10F9100044812C70AC610420EC616860002070BDF3
:10F92000FC30002088280020FFB5274881B00079EE
:10F930001F4616460D46400702D4082005B0F0BD0C
:10F94000002D06D00198002803D02868002815D182
:10F9500001E00E20F2E71D4C206800280ED06189DE
:10F9600020896268414389186A68914206D9002E4D
:10F9700004D0B04202D3F119814201D90720DDE75A
:10F980000198FFF775FA00281BD03846FFF770FA88
:10F99000002816D06868FFF76BFA002811D0686855
:10F9A0003246C1190198FCF7FBFB009628680C2130
:10F9B00048432458002202212846019BA0470020EA
:10F9C000BCE71020BAE7000088280020C8310020DA
:10F9D000F8B52C4D044628790E46400701D408207E
:10F9E000F8BD002C20D0002E1ED0206800281BD08F
:10F9F000FFF76EFF0146A088814213D3102811D370
:10FA0000E08800280ED0FFF751FF471EFFF760FF88
:10FA10004743E288A188A8684A431218974201D355
:10FA2000890703D00720F8BD0E20F8BD6988012999
:10FA300026D031600C22144B51437060CA185060BC
:10FA400020685850A0881081E0885081FFF740FF5F
:10FA50000646FFF73DFFA188E288401E514340184B
:10FA60003146FCF789FB0446FFF732FF0146A868E0
:10FA700061430818A8606888401C68800020F8BDB1
:10FA80000420F8BD88280020C8310020F8B50446BD
:10FA900020481E46007915460F46400701D408202D
:10FAA000F8BD002F05D0002C03D02068002815D108
:10FAB00001E00E20F8BD1848016800290ED04289E7
:10FAC000018940684A4310186268904206D9002DA7
:10FAD00004D0A94202D3A819884201D90720F8BD51
:10FAE0003846FFF7C5F9002811D03046FFF7C0F9B6
:10FAF00000280CD06068FFF7BBF9002807D02B4620
:10FB00003A46214601200096FEF784F9F8BD102000
:10FB1000F8BD000088280020C831002010B5114928
:10FB200002460878002811D004280FD0022A16D0E7
:10FB3000032A0BD10A79120711D48A69521C8A61EF
:10FB4000032A08D0022802D000F0F4F810BD48784B
:10FB500000F02CFA10BD0D20FDF7D8F910BDFEF70E
:10FB60008DFF10BD88280020F8B5044620481E46A9
:10FB7000007915460F46400701D40820F8BD002F34
:10FB800005D0002C03D02068002815D101E00E20FC
:10FB9000F8BD1848016800290ED0428901894068E3
:10FBA0004A4310186268904206D9002D04D0A94239
:10FBB00002D3A819884201D90720F8BD3846FFF7BB
:10FBC00057F9002811D03046FFF752F900280CD021
:10FBD0006068FFF74DF9002807D02B463A462146CA
:10FBE00004200096FEF716F9F8BD1020F8BD0000BD
:10FBF00088280020C831002070B501240B4960041A
:10FC000008600B4940108860094940398860094DF7
:10FC10006C602F20FCF76EFAAC60074D00242F209B
:10FC20002C61FCF767FAEC7070BD000080E100E029
:10FC30004013014000100140AC280020FF2107487C
:10FC4000093100224250064881690648037DC26896
:10FC5000D154017D491C017570470000002000400F
:10FC600000250040E43000201FB5012269460A70DB
:10FC700008720448C16801910021C17406C8684631
:10FC800090471FBDE4300020FF22054825320021A7
:10FC90008150FF220932815001210160704700002C
:10FCA00000200040FFB50746806A81B01446002856
:10FCB0003DD0002538462030009033E00C20B96A52
:10FCC00068430E18B088801CFE2802D90C2005B0AD
:10FCD000F0BD22880299401C885420881622401CBE
:10FCE00080B2208002990A542088401C80B2208073
:10FCF00002994118308800F0DAFA2188401880B261
:10FD00002080B288002A0AD0B16800290FD0029B57
:10FD1000C018FCF745FA2088B188401820806D1C77
:10FD20000098EDB2007BA842C8D80020CFE707209A
:10FD3000CDE7000010B50F490028087009D0012850
:10FD400011D0022812D0032802D14869FEF7D6FE4E
:10FD500010BD00208861C861074840780028F7D0AE
:10FD6000FEF72CF810BD00F0D9F810BD00F038F8FF
:10FD700010BD000088280020FC30002010B5084687
:10FD80001146C046C04610BD002803D00249C860D5
:10FD9000002070470E207047D028002070B5002941
:10FDA00001D08C0701D0072070BD064C0125A16051
:10FDB00062800549636010DF0028F5D125701620A8
:10FDC0002EDF70BDD02800207DFD0100002803D06B
:10FDD00002490861002070470E207047D02800209B
:10FDE000F8B5164C14226068400840006060144862
:10FDF000017851430E183769FFF76AFD014638460E
:10FE0000FCF7A4F905466061FFF762FD0146F08842
:10FE10007F1EC019FCF79AF902228542606801D161
:10FE2000104300E090436060E1681040084303D055
:10FE3000002000F0BBF8F8BD0220FAE78828002077
:10FE4000FC30002010B502484069FEF757FE10BD97
:10FE50008828002010B5FFF729FD441EFFF738FD64
:10FE60004443FFF735FD04494A69521E5043CA68AE
:10FE70002146FEF748FE10BD88280020F8B510483E
:10FE80001422017851430C182569FFF721FD014622
:10FE9000E088228980184019FCF758F90F46FFF7CF
:10FEA00005FD461EFFF714FD4643E0882289F1193F
:10FEB0008018044A40191269FEF725FEF8BD0000BB
:10FEC000FC3000208828002070B5FFF701FD0546B2
:10FED000FFF7ECFC441EFFF7FBFC60432946FCF7F0
:10FEE00035F9FEF70BFE70BD70B5FFF7F1FC860823
:10FEF000FFF7EEFC0749496948430446FFF7D6FC83
:10FF0000451EFFF7E5FC684332462146FEF7FBFD40
:10FF100070BD0000882800200020704770B514488C
:10FF20001422017851430C18241DFFF7D1FC61887D
:10FF3000104E884211D2FFF7CBFC61880D1AFFF7F3
:10FF4000C7FC8208A188E068401821694019491956
:10FF5000FEF7D9FDFFF7BCFC07E0A288E068801837
:10FF60008A082169FEF7CFFD6088F06170BD00004E
:10FF7000FC3000208828002010B5054800790007D3
:10FF800003D4012000F012F810BD00F003F810BDFA
:10FF90008828002010B50448082241689143416038
:10FFA000407800F003F810BD88280020024948700E
:10FFB00002498000085800478828002054050200A4
:10FFC00010B50446FFF7AAFD2046FCF73BFF20468C
:10FFD000FDF7F2F910BD000010B5054800790007E3
:10FFE00002D4FDF7D9FE10BDFFF7D4FF10BD00000D
:10FFF00088280020FEB51F4C00252769E068029084
:020000040002F8
:100000006846FEF7F7FC0190FEF762FF064601988E
:10001000002822D000230098E16817E00E680A4605
:10002000864202D9301A086012E0801BF3180026BD
:100030001660D668D169B446002E07D0FE18360285
:10004000360A566066469660D56115460029E5D1A8
:100050002846E160FEF79AFF06E02846FEF796FF85
:10006000002801D1002E02D00298FDF717FF0020D2
:100070002071FEBDAC280020012002490005086067
:100080007047000000E200E010B50E4BD96800296F
:1000900006D002680C68A24204D8A21A0A60C161A4
:1000A000D86010BD0B4604E00B46C969121B00293D
:1000B00004D00C689442F7D3A41A0C600260C161AA
:1000C000D86110BDAC280020F8B51E4DEC68002C9E
:1000D00036D01D48002740682969401A0602360AB2
:1000E0002068B0421AD8361AC7192246107CE46933
:1000F000002811D0002010746B69002B09D0916981
:1001000050699847002807D000221146FCF7AAFE44
:1001100002E0516990698847002CE1D16978A8789C
:10012000814206D1401CC0B2A870022801D1002033
:10013000A87004490006800D18310F50FFF79CFF8E
:10014000F8BD0000AC28002000150140FF21074841
:100150001D31002242500648028A8168895C028A69
:10016000521C02820348C161704700000020004019
:10017000E4300020002500401FB500216A461170C0
:100180001072044882680192817406C868469047DC
:100190001FBD0000E430002070B50178002909D0AF
:1001A000012901D0022904D1002240681146FCF740
:1001B00059FE70BD104C0F4D20782818FCF77CFFBD
:1001C0002078401CC2B2A81822702038C07F0A28AC
:1001D00001D0142AEDD307490848FDF717FB08287A
:1001E00005D0002803D000221146FCF73BFE00207A
:1001F000207070BDF82A0020002800200C2D00205F
:100200007CB50178254D01290AD002292FD000297B
:100210002CD129462248FCF739FE00282ED031E0A7
:10022000406801781E481038FCF74DFE1C4C103C0D
:10023000002805D001216A4611700190684608E047
:10024000A068E168081A012805D1002069460870F5
:10025000684669688847A068E168081AA1888842EA
:1002600004D80E480121801CFFF7C6F87CBD02218E
:100270006A461170C068019068460CE00121074889
:10028000FFF720F906488168C0688842EED1032054
:10029000694608706846696888477CBD80280020E8
:1002A0008C300020417802780802104370470870B3
:1002B000000A4870022070470121814002484268CC
:1002C0008A434260704700006828002038B515490D
:1002D000154A488890420FD04A78144C521CD2B22A
:1002E0004A70237B934208D3091D75DF002803D091
:1002F000A169002900D0884738BD00254D70217CB8
:10030000002907D03B2176DF002803D0A16900290E
:1003100000D0884761690029EED06846057088479B
:1003200038BD000054280020FFFF0000382F0020B7
:1003300012494868C005C00D19D0103840B20028D5
:1003400007DA0207120F083A920892005118C96999
:1003500004E081080A4A8900891809688007C00EEC
:10036000C1400806800F012803D0032803D00220D3
:1003700070470020704701207047000000ED00E04A
:1003800000E400E042788378521CD2B2934200D15C
:1003900000220378934201D1002070470A7041681F
:1003A00040781822504308187047FFB583B01646AE
:1003B0000C9D0D9C1F46022200950194039800F0AD
:1003C0000CF8002807D13B461022314600950194D5
:1003D000039800F002F807B0F0BDFFB583B0074600
:1003E00000200C9C8646268805463AE07868A900DD
:1003F00042181188684681805188C1800022694670
:1004000001A865DF002839D1684601780598814246
:1004100026D17046002801D0002200E00222208868
:10042000891842180D998A4227D8714600290AD1A5
:10043000401C80B22080069A049911542088401CE8
:10044000208001208646218806980A18694601A85E
:1004500065DF002812D1694620880978401820807D
:100460006D1C3888A842C1DC704600280AD020885C
:10047000801B401E80B2FF2802D90C2007B0F0BDBF
:10048000069988550020F9E70179002902D1007BFF
:10049000002800D0012070470B09080A0100000065
:1004A00000509D00A82D0020C82D0020F42D002014
:1004B00010000000110000001300000014000000F4
:1004C0001000030089D901001100030089D901003F
:1004D0001300030089D901001400030089D9010029
:1004E000182F0020C7F201000DEC010027EB0100DE
:1004F000C9EC0100C3F20100DDEB010023EB0100B8
:10050000C1EC0100BFF201002DEB01001FEB010067
:10051000B9EC0100090000000B0000000A00000017
:1005200008000000000000000000000000509D00D6
:1005300003000000090000000B0000000A0000009A
:1005400008000000000000000000000000509D00B6
:1005500003000000C9FE0100E9FE010045FE0100A4
:100560007DFE010055FE010079FF0100E9E0010078
:1005700095E00100D9FF0100D1EC01009C050200CB
:1005800000280020E80000007AC60100840602006E
:10059000E8280020F01000008AC601000000FFFFDC
:1005A000000000000000000000000000000000004B
:1005B000000000000000000000000000000000003B
:1005C000000000000000000000000000000000002B
:1005D0000000000000000000FFFF0000000000001D
:1005E000000000000000000000000000000000000B
:1005F00000000000000000000000000000000000FB
:1006000000000000000000000000000000000000EA
:1006100000000000000000000000000000000000DA
:1006200000000000000000000000000000000000CA
:1006300000000000000000000000000000000000BA
:1006400000000000000000000000000000000000AA
:10065000000000000000000000000000000000009A
:10066000000000000000000000000000000000008A
:10067000000000000000000000000000000000007A
:040680000024F4005E
:040000050001C0C175
:00000001FF
